{
  "_format": "hh-sol-artifact-1",
  "contractName": "AuctionMarket",
  "sourceName": "contracts/AuctionMarket.sol",
  "abi": [
    {
      "inputs": [
        {
          "internalType": "address",
          "name": "_cctAddress",
          "type": "address"
        },
        {
          "internalType": "address",
          "name": "_nftAddress",
          "type": "address"
        }
      ],
      "stateMutability": "nonpayable",
      "type": "constructor"
    },
    {
      "anonymous": false,
      "inputs": [
        {
          "indexed": true,
          "internalType": "bytes32",
          "name": "auctionId",
          "type": "bytes32"
        }
      ],
      "name": "NewItemAuctionId",
      "type": "event"
    },
    {
      "anonymous": false,
      "inputs": [
        {
          "indexed": true,
          "internalType": "address",
          "name": "previousOwner",
          "type": "address"
        },
        {
          "indexed": true,
          "internalType": "address",
          "name": "newOwner",
          "type": "address"
        }
      ],
      "name": "OwnershipTransferred",
      "type": "event"
    },
    {
      "inputs": [
        {
          "internalType": "bytes32",
          "name": "",
          "type": "bytes32"
        }
      ],
      "name": "auctions",
      "outputs": [
        {
          "internalType": "address",
          "name": "seller",
          "type": "address"
        },
        {
          "internalType": "uint256",
          "name": "tokenId",
          "type": "uint256"
        },
        {
          "internalType": "uint256",
          "name": "price",
          "type": "uint256"
        },
        {
          "internalType": "uint256",
          "name": "amount",
          "type": "uint256"
        }
      ],
      "stateMutability": "view",
      "type": "function"
    },
    {
      "inputs": [
        {
          "components": [
            {
              "internalType": "address",
              "name": "seller",
              "type": "address"
            },
            {
              "internalType": "uint256",
              "name": "tokenId",
              "type": "uint256"
            },
            {
              "internalType": "uint256",
              "name": "price",
              "type": "uint256"
            },
            {
              "internalType": "uint256",
              "name": "amount",
              "type": "uint256"
            }
          ],
          "internalType": "struct AuctionMarket.Auction",
          "name": "auction",
          "type": "tuple"
        }
      ],
      "name": "calcItemAuctionId",
      "outputs": [
        {
          "internalType": "bytes32",
          "name": "",
          "type": "bytes32"
        }
      ],
      "stateMutability": "pure",
      "type": "function"
    },
    {
      "inputs": [],
      "name": "cctAddress",
      "outputs": [
        {
          "internalType": "address",
          "name": "",
          "type": "address"
        }
      ],
      "stateMutability": "view",
      "type": "function"
    },
    {
      "inputs": [
        {
          "internalType": "bytes32",
          "name": "auctionId",
          "type": "bytes32"
        }
      ],
      "name": "getAuctionItem",
      "outputs": [
        {
          "components": [
            {
              "internalType": "address",
              "name": "seller",
              "type": "address"
            },
            {
              "internalType": "uint256",
              "name": "tokenId",
              "type": "uint256"
            },
            {
              "internalType": "uint256",
              "name": "price",
              "type": "uint256"
            },
            {
              "internalType": "uint256",
              "name": "amount",
              "type": "uint256"
            }
          ],
          "internalType": "struct AuctionMarket.Auction",
          "name": "",
          "type": "tuple"
        }
      ],
      "stateMutability": "view",
      "type": "function"
    },
    {
      "inputs": [],
      "name": "nftAddress",
      "outputs": [
        {
          "internalType": "address",
          "name": "",
          "type": "address"
        }
      ],
      "stateMutability": "view",
      "type": "function"
    },
    {
      "inputs": [],
      "name": "owner",
      "outputs": [
        {
          "internalType": "address",
          "name": "",
          "type": "address"
        }
      ],
      "stateMutability": "view",
      "type": "function"
    },
    {
      "inputs": [
        {
          "internalType": "bytes32",
          "name": "auctionId",
          "type": "bytes32"
        },
        {
          "internalType": "uint256",
          "name": "_amount",
          "type": "uint256"
        }
      ],
      "name": "purchase",
      "outputs": [],
      "stateMutability": "nonpayable",
      "type": "function"
    },
    {
      "inputs": [],
      "name": "renounceOwnership",
      "outputs": [],
      "stateMutability": "nonpayable",
      "type": "function"
    },
    {
      "inputs": [
        {
          "internalType": "bytes32",
          "name": "auctionId",
          "type": "bytes32"
        }
      ],
      "name": "revoke",
      "outputs": [],
      "stateMutability": "nonpayable",
      "type": "function"
    },
    {
      "inputs": [
        {
          "internalType": "uint256",
          "name": "_tokenId",
          "type": "uint256"
        },
        {
          "internalType": "uint256",
          "name": "_price",
          "type": "uint256"
        },
        {
          "internalType": "uint256",
          "name": "_amount",
          "type": "uint256"
        }
      ],
      "name": "sellItem",
      "outputs": [],
      "stateMutability": "nonpayable",
      "type": "function"
    },
    {
      "inputs": [
        {
          "internalType": "address",
          "name": "newOwner",
          "type": "address"
        }
      ],
      "name": "transferOwnership",
      "outputs": [],
      "stateMutability": "nonpayable",
      "type": "function"
    },
    {
      "inputs": [
        {
          "internalType": "address",
          "name": "to",
          "type": "address"
        }
      ],
      "name": "withdraw",
      "outputs": [],
      "stateMutability": "nonpayable",
      "type": "function"
    }
  ],
  "bytecode": "0x60c06040523480156200001157600080fd5b50604051620021f1380380620021f18339818101604052810190620000379190620001b0565b620000576200004b620000cd60201b60201c565b620000d560201b60201c565b8173ffffffffffffffffffffffffffffffffffffffff1660808173ffffffffffffffffffffffffffffffffffffffff1660601b815250508073ffffffffffffffffffffffffffffffffffffffff1660a08173ffffffffffffffffffffffffffffffffffffffff1660601b8152505050506200023f565b600033905090565b60008060009054906101000a900473ffffffffffffffffffffffffffffffffffffffff169050816000806101000a81548173ffffffffffffffffffffffffffffffffffffffff021916908373ffffffffffffffffffffffffffffffffffffffff1602179055508173ffffffffffffffffffffffffffffffffffffffff168173ffffffffffffffffffffffffffffffffffffffff167f8be0079c531659141344cd1fd0a4f28419497f9722a3daafe3b4186f6b6457e060405160405180910390a35050565b600081519050620001aa8162000225565b92915050565b60008060408385031215620001c457600080fd5b6000620001d48582860162000199565b9250506020620001e78582860162000199565b9150509250929050565b6000620001fe8262000205565b9050919050565b600073ffffffffffffffffffffffffffffffffffffffff82169050919050565b6200023081620001f1565b81146200023c57600080fd5b50565b60805160601c60a05160601c611f556200029c600039600081816103270152818161078f0152610c2a015260008181610613015281816106b50152818161076301528181610a8d01528181610ba60152610bd20152611f556000f3fe608060405234801561001057600080fd5b50600436106100b45760003560e01c806360eae0b51161007157806360eae0b514610190578063715018a6146101c05780638da5cb5b146101ca578063b75c7dc6146101e8578063e123182b14610204578063f2fde38b14610220576100b4565b806309527fe2146100b95780631304e535146100e95780631edbc5be14610105578063253f65e81461013857806351cff8d9146101565780635bf8633a14610172575b600080fd5b6100d360048036038101906100ce9190611341565b61023c565b6040516100e09190611a12565b60405180910390f35b61010360048036038101906100fe91906113f8565b6102dd565b005b61011f600480360381019061011a9190611341565b6105c1565b60405161012f9493929190611850565b60405180910390f35b610140610611565b60405161014d9190611754565b60405180910390f35b610170600480360381019061016b91906112ef565b610635565b005b61017a61078d565b6040516101879190611754565b60405180910390f35b6101aa60048036038101906101a591906113a6565b6107b1565b6040516101b79190611895565b60405180910390f35b6101c86107ff565b005b6101d2610887565b6040516101df9190611754565b60405180910390f35b61020260048036038101906101fd9190611341565b6108b0565b005b61021e6004803603810190610219919061136a565b610a13565b005b61023a600480360381019061023591906112ef565b610ced565b005b61024461122d565b600160008381526020019081526020016000206040518060800160405290816000820160009054906101000a900473ffffffffffffffffffffffffffffffffffffffff1673ffffffffffffffffffffffffffffffffffffffff1673ffffffffffffffffffffffffffffffffffffffff16815260200160018201548152602001600282015481526020016003820154815250509050919050565b60008111610320576040517f08c379a000000000000000000000000000000000000000000000000000000000815260040161031790611972565b60405180910390fd5b60003390507f000000000000000000000000000000000000000000000000000000000000000073ffffffffffffffffffffffffffffffffffffffff1663e985e9c582306040518363ffffffff1660e01b815260040161038092919061176f565b60206040518083038186803b15801561039857600080fd5b505afa1580156103ac573d6000803e3d6000fd5b505050506040513d601f19601f820116820180604052508101906103d09190611318565b61040f576040517f08c379a000000000000000000000000000000000000000000000000000000000815260040161040690611952565b60405180910390fd5b600081858560405160200161042693929190611700565b604051602081830303815290604052805190602001209050600073ffffffffffffffffffffffffffffffffffffffff166001600083815260200190815260200160002060000160009054906101000a900473ffffffffffffffffffffffffffffffffffffffff1673ffffffffffffffffffffffffffffffffffffffff16146104da57826001600083815260200190815260200160002060030160008282546104ce9190611a70565b9250508190555061058d565b60405180608001604052808373ffffffffffffffffffffffffffffffffffffffff168152602001868152602001858152602001848152506001600083815260200190815260200160002060008201518160000160006101000a81548173ffffffffffffffffffffffffffffffffffffffff021916908373ffffffffffffffffffffffffffffffffffffffff1602179055506020820151816001015560408201518160020155606082015181600301559050505b807f94facd1f25dcb29a5497a1ba55954fdaeaca0a75fb2b4224495c97120928dd9f60405160405180910390a25050505050565b60016020528060005260406000206000915090508060000160009054906101000a900473ffffffffffffffffffffffffffffffffffffffff16908060010154908060020154908060030154905084565b7f000000000000000000000000000000000000000000000000000000000000000081565b61063d610de5565b73ffffffffffffffffffffffffffffffffffffffff1661065b610887565b73ffffffffffffffffffffffffffffffffffffffff16146106b1576040517f08c379a00000000000000000000000000000000000000000000000000000000081526004016106a890611992565b60405180910390fd5b60007f000000000000000000000000000000000000000000000000000000000000000073ffffffffffffffffffffffffffffffffffffffff166370a08231306040518263ffffffff1660e01b815260040161070c9190611754565b60206040518083038186803b15801561072457600080fd5b505afa158015610738573d6000803e3d6000fd5b505050506040513d601f19601f8201168201806040525081019061075c91906113cf565b90506107897f00000000000000000000000000000000000000000000000000000000000000008383610ded565b5050565b7f000000000000000000000000000000000000000000000000000000000000000081565b60008160000160208101906107c691906112ef565b826020013583604001356040516020016107e293929190611700565b604051602081830303815290604052805190602001209050919050565b610807610de5565b73ffffffffffffffffffffffffffffffffffffffff16610825610887565b73ffffffffffffffffffffffffffffffffffffffff161461087b576040517f08c379a000000000000000000000000000000000000000000000000000000000815260040161087290611992565b60405180910390fd5b6108856000610e73565b565b60008060009054906101000a900473ffffffffffffffffffffffffffffffffffffffff16905090565b6000600160008381526020019081526020016000206040518060800160405290816000820160009054906101000a900473ffffffffffffffffffffffffffffffffffffffff1673ffffffffffffffffffffffffffffffffffffffff1673ffffffffffffffffffffffffffffffffffffffff16815260200160018201548152602001600282015481526020016003820154815250509050600073ffffffffffffffffffffffffffffffffffffffff16816000015173ffffffffffffffffffffffffffffffffffffffff1614156109ba576040517f08c379a00000000000000000000000000000000000000000000000000000000081526004016109b190611932565b60405180910390fd5b60016000838152602001908152602001600020600080820160006101000a81549073ffffffffffffffffffffffffffffffffffffffff021916905560018201600090556002820160009055600382016000905550505050565b600033905060006001600085815260200190815260200160002090508281600301541015610a76576040517f08c379a0000000000000000000000000000000000000000000000000000000008152600401610a6d906119b2565b60405180910390fd5b6000816002015484610a889190611af7565b9050807f000000000000000000000000000000000000000000000000000000000000000073ffffffffffffffffffffffffffffffffffffffff166370a08231856040518263ffffffff1660e01b8152600401610ae49190611754565b60206040518083038186803b158015610afc57600080fd5b505afa158015610b10573d6000803e3d6000fd5b505050506040513d601f19601f82011682018060405250810190610b3491906113cf565b1015610b75576040517f08c379a0000000000000000000000000000000000000000000000000000000008152600401610b6c906118d2565b60405180910390fd5b83826003016000828254610b899190611b51565b925050819055506000606482610b9f9190611ac6565b9050610bcd7f0000000000000000000000000000000000000000000000000000000000000000853084610f37565b610c287f0000000000000000000000000000000000000000000000000000000000000000858560000160009054906101000a900473ffffffffffffffffffffffffffffffffffffffff168486610c239190611b51565b610f37565b7f000000000000000000000000000000000000000000000000000000000000000073ffffffffffffffffffffffffffffffffffffffff1663f242432a8460000160009054906101000a900473ffffffffffffffffffffffffffffffffffffffff1686866001015487600301546040518563ffffffff1660e01b8152600401610cb394939291906117cf565b600060405180830381600087803b158015610ccd57600080fd5b505af1158015610ce1573d6000803e3d6000fd5b50505050505050505050565b610cf5610de5565b73ffffffffffffffffffffffffffffffffffffffff16610d13610887565b73ffffffffffffffffffffffffffffffffffffffff1614610d69576040517f08c379a0000000000000000000000000000000000000000000000000000000008152600401610d6090611992565b60405180910390fd5b600073ffffffffffffffffffffffffffffffffffffffff168173ffffffffffffffffffffffffffffffffffffffff161415610dd9576040517f08c379a0000000000000000000000000000000000000000000000000000000008152600401610dd0906118f2565b60405180910390fd5b610de281610e73565b50565b600033905090565b610e6e8363a9059cbb60e01b8484604051602401610e0c929190611827565b604051602081830303815290604052907bffffffffffffffffffffffffffffffffffffffffffffffffffffffff19166020820180517bffffffffffffffffffffffffffffffffffffffffffffffffffffffff8381831617835250505050610fc0565b505050565b60008060009054906101000a900473ffffffffffffffffffffffffffffffffffffffff169050816000806101000a81548173ffffffffffffffffffffffffffffffffffffffff021916908373ffffffffffffffffffffffffffffffffffffffff1602179055508173ffffffffffffffffffffffffffffffffffffffff168173ffffffffffffffffffffffffffffffffffffffff167f8be0079c531659141344cd1fd0a4f28419497f9722a3daafe3b4186f6b6457e060405160405180910390a35050565b610fba846323b872dd60e01b858585604051602401610f5893929190611798565b604051602081830303815290604052907bffffffffffffffffffffffffffffffffffffffffffffffffffffffff19166020820180517bffffffffffffffffffffffffffffffffffffffffffffffffffffffff8381831617835250505050610fc0565b50505050565b6000611022826040518060400160405280602081526020017f5361666545524332303a206c6f772d6c6576656c2063616c6c206661696c65648152508573ffffffffffffffffffffffffffffffffffffffff166110879092919063ffffffff16565b905060008151111561108257808060200190518101906110429190611318565b611081576040517f08c379a0000000000000000000000000000000000000000000000000000000008152600401611078906119f2565b60405180910390fd5b5b505050565b6060611096848460008561109f565b90509392505050565b6060824710156110e4576040517f08c379a00000000000000000000000000000000000000000000000000000000081526004016110db90611912565b60405180910390fd5b6110ed856111b3565b61112c576040517f08c379a0000000000000000000000000000000000000000000000000000000008152600401611123906119d2565b60405180910390fd5b6000808673ffffffffffffffffffffffffffffffffffffffff168587604051611155919061173d565b60006040518083038185875af1925050503d8060008114611192576040519150601f19603f3d011682016040523d82523d6000602084013e611197565b606091505b50915091506111a78282866111c6565b92505050949350505050565b600080823b905060008111915050919050565b606083156111d657829050611226565b6000835111156111e95782518084602001fd5b816040517f08c379a000000000000000000000000000000000000000000000000000000000815260040161121d91906118b0565b60405180910390fd5b9392505050565b6040518060800160405280600073ffffffffffffffffffffffffffffffffffffffff1681526020016000815260200160008152602001600081525090565b60008135905061127a81611ec3565b92915050565b60008151905061128f81611eda565b92915050565b6000813590506112a481611ef1565b92915050565b6000608082840312156112bc57600080fd5b81905092915050565b6000813590506112d481611f08565b92915050565b6000815190506112e981611f08565b92915050565b60006020828403121561130157600080fd5b600061130f8482850161126b565b91505092915050565b60006020828403121561132a57600080fd5b600061133884828501611280565b91505092915050565b60006020828403121561135357600080fd5b600061136184828501611295565b91505092915050565b6000806040838503121561137d57600080fd5b600061138b85828601611295565b925050602061139c858286016112c5565b9150509250929050565b6000608082840312156113b857600080fd5b60006113c6848285016112aa565b91505092915050565b6000602082840312156113e157600080fd5b60006113ef848285016112da565b91505092915050565b60008060006060848603121561140d57600080fd5b600061141b868287016112c5565b935050602061142c868287016112c5565b925050604061143d868287016112c5565b9150509250925092565b61145081611b85565b82525050565b61145f81611b85565b82525050565b61147661147182611b85565b611c0a565b82525050565b61148581611ba3565b82525050565b600061149682611a2d565b6114a08185611a54565b93506114b0818560208601611bd7565b80840191505092915050565b60006114c782611a38565b6114d18185611a5f565b93506114e1818560208601611bd7565b6114ea81611c96565b840191505092915050565b6000611502601683611a5f565b915061150d82611cb4565b602082019050919050565b6000611525602683611a5f565b915061153082611cdd565b604082019050919050565b6000611548602683611a5f565b915061155382611d2c565b604082019050919050565b600061156b601183611a5f565b915061157682611d7b565b602082019050919050565b600061158e600c83611a5f565b915061159982611da4565b602082019050919050565b60006115b1600d83611a5f565b91506115bc82611dcd565b602082019050919050565b60006115d4602083611a5f565b91506115df82611df6565b602082019050919050565b60006115f7601883611a5f565b915061160282611e1f565b602082019050919050565b600061161a600083611a43565b915061162582611e48565b600082019050919050565b600061163d601d83611a5f565b915061164882611e4b565b602082019050919050565b6000611660602a83611a5f565b915061166b82611e74565b604082019050919050565b60808201600082015161168c6000850182611447565b50602082015161169f60208501826116cb565b5060408201516116b260408501826116cb565b5060608201516116c560608501826116cb565b50505050565b6116d481611bcd565b82525050565b6116e381611bcd565b82525050565b6116fa6116f582611bcd565b611c2e565b82525050565b600061170c8286611465565b60148201915061171c82856116e9565b60208201915061172c82846116e9565b602082019150819050949350505050565b6000611749828461148b565b915081905092915050565b60006020820190506117696000830184611456565b92915050565b60006040820190506117846000830185611456565b6117916020830184611456565b9392505050565b60006060820190506117ad6000830186611456565b6117ba6020830185611456565b6117c760408301846116da565b949350505050565b600060a0820190506117e46000830187611456565b6117f16020830186611456565b6117fe60408301856116da565b61180b60608301846116da565b818103608083015261181c8161160d565b905095945050505050565b600060408201905061183c6000830185611456565b61184960208301846116da565b9392505050565b60006080820190506118656000830187611456565b61187260208301866116da565b61187f60408301856116da565b61188c60608301846116da565b95945050505050565b60006020820190506118aa600083018461147c565b92915050565b600060208201905081810360008301526118ca81846114bc565b905092915050565b600060208201905081810360008301526118eb816114f5565b9050919050565b6000602082019050818103600083015261190b81611518565b9050919050565b6000602082019050818103600083015261192b8161153b565b9050919050565b6000602082019050818103600083015261194b8161155e565b9050919050565b6000602082019050818103600083015261196b81611581565b9050919050565b6000602082019050818103600083015261198b816115a4565b9050919050565b600060208201905081810360008301526119ab816115c7565b9050919050565b600060208201905081810360008301526119cb816115ea565b9050919050565b600060208201905081810360008301526119eb81611630565b9050919050565b60006020820190508181036000830152611a0b81611653565b9050919050565b6000608082019050611a276000830184611676565b92915050565b600081519050919050565b600081519050919050565b600082825260208201905092915050565b600081905092915050565b600082825260208201905092915050565b6000611a7b82611bcd565b9150611a8683611bcd565b9250827fffffffffffffffffffffffffffffffffffffffffffffffffffffffffffffffff03821115611abb57611aba611c38565b5b828201905092915050565b6000611ad182611bcd565b9150611adc83611bcd565b925082611aec57611aeb611c67565b5b828204905092915050565b6000611b0282611bcd565b9150611b0d83611bcd565b9250817fffffffffffffffffffffffffffffffffffffffffffffffffffffffffffffffff0483118215151615611b4657611b45611c38565b5b828202905092915050565b6000611b5c82611bcd565b9150611b6783611bcd565b925082821015611b7a57611b79611c38565b5b828203905092915050565b6000611b9082611bad565b9050919050565b60008115159050919050565b6000819050919050565b600073ffffffffffffffffffffffffffffffffffffffff82169050919050565b6000819050919050565b60005b83811015611bf5578082015181840152602081019050611bda565b83811115611c04576000848401525b50505050565b6000611c1582611c1c565b9050919050565b6000611c2782611ca7565b9050919050565b6000819050919050565b7f4e487b7100000000000000000000000000000000000000000000000000000000600052601160045260246000fd5b7f4e487b7100000000000000000000000000000000000000000000000000000000600052601260045260246000fd5b6000601f19601f8301169050919050565b60008160601b9050919050565b7f42757965722066756e6473206e6f7420656e6f75676800000000000000000000600082015250565b7f4f776e61626c653a206e6577206f776e657220697320746865207a65726f206160008201527f6464726573730000000000000000000000000000000000000000000000000000602082015250565b7f416464726573733a20696e73756666696369656e742062616c616e636520666f60008201527f722063616c6c0000000000000000000000000000000000000000000000000000602082015250565b7f756e6b6e6f776e2061756374696f6e4964000000000000000000000000000000600082015250565b7f4e6f7420617070726f7665640000000000000000000000000000000000000000600082015250565b7f496e76616c696420706172616d00000000000000000000000000000000000000600082015250565b7f4f776e61626c653a2063616c6c6572206973206e6f7420746865206f776e6572600082015250565b7f4e6f7420656e6f75676820746f6b656e20746f2073656c6c0000000000000000600082015250565b50565b7f416464726573733a2063616c6c20746f206e6f6e2d636f6e7472616374000000600082015250565b7f5361666545524332303a204552433230206f7065726174696f6e20646964206e60008201527f6f74207375636365656400000000000000000000000000000000000000000000602082015250565b611ecc81611b85565b8114611ed757600080fd5b50565b611ee381611b97565b8114611eee57600080fd5b50565b611efa81611ba3565b8114611f0557600080fd5b50565b611f1181611bcd565b8114611f1c57600080fd5b5056fea264697066735822122099a16ef5dd950efe437fc7a048e3f867e16a319767312590f6f096966c4fafd764736f6c63430008040033",
  "linkReferences": {},
  "deployedLinkReferences": {}
}