{
  "_format": "hh-sol-artifact-1",
  "contractName": "AuctionMarket",
  "sourceName": "contracts/AuctionMarket.sol",
  "abi": [
    {
      "inputs": [
        {
          "internalType": "address",
          "name": "_cctAddress",
          "type": "address"
        }
      ],
      "stateMutability": "nonpayable",
      "type": "constructor"
    },
    {
      "anonymous": false,
      "inputs": [
        {
          "indexed": true,
          "internalType": "uint256",
          "name": "auctionId",
          "type": "uint256"
        }
      ],
      "name": "CreateNewAuction",
      "type": "event"
    },
    {
      "anonymous": false,
      "inputs": [
        {
          "indexed": true,
          "internalType": "address",
          "name": "previousOwner",
          "type": "address"
        },
        {
          "indexed": true,
          "internalType": "address",
          "name": "newOwner",
          "type": "address"
        }
      ],
      "name": "OwnershipTransferred",
      "type": "event"
    },
    {
      "inputs": [
        {
          "internalType": "uint256",
          "name": "",
          "type": "uint256"
        }
      ],
      "name": "auctionStatus",
      "outputs": [
        {
          "internalType": "enum AuctionMarket.Status",
          "name": "",
          "type": "uint8"
        }
      ],
      "stateMutability": "view",
      "type": "function"
    },
    {
      "inputs": [
        {
          "internalType": "uint256",
          "name": "",
          "type": "uint256"
        }
      ],
      "name": "auctions",
      "outputs": [
        {
          "internalType": "address",
          "name": "nftAddress",
          "type": "address"
        },
        {
          "internalType": "address",
          "name": "seller",
          "type": "address"
        },
        {
          "internalType": "uint256",
          "name": "price",
          "type": "uint256"
        }
      ],
      "stateMutability": "view",
      "type": "function"
    },
    {
      "inputs": [],
      "name": "cctAddress",
      "outputs": [
        {
          "internalType": "address",
          "name": "",
          "type": "address"
        }
      ],
      "stateMutability": "view",
      "type": "function"
    },
    {
      "inputs": [
        {
          "internalType": "uint256",
          "name": "_aid",
          "type": "uint256"
        }
      ],
      "name": "getActiveAuction",
      "outputs": [
        {
          "components": [
            {
              "internalType": "address",
              "name": "nftAddress",
              "type": "address"
            },
            {
              "internalType": "address",
              "name": "seller",
              "type": "address"
            },
            {
              "internalType": "uint256[]",
              "name": "_tokenIds",
              "type": "uint256[]"
            },
            {
              "internalType": "uint256",
              "name": "price",
              "type": "uint256"
            }
          ],
          "internalType": "struct AuctionMarket.Auction",
          "name": "",
          "type": "tuple"
        }
      ],
      "stateMutability": "view",
      "type": "function"
    },
    {
      "inputs": [],
      "name": "owner",
      "outputs": [
        {
          "internalType": "address",
          "name": "",
          "type": "address"
        }
      ],
      "stateMutability": "view",
      "type": "function"
    },
    {
      "inputs": [
        {
          "internalType": "uint256",
          "name": "_aid",
          "type": "uint256"
        }
      ],
      "name": "purchase",
      "outputs": [],
      "stateMutability": "nonpayable",
      "type": "function"
    },
    {
      "inputs": [],
      "name": "renounceOwnership",
      "outputs": [],
      "stateMutability": "nonpayable",
      "type": "function"
    },
    {
      "inputs": [
        {
          "internalType": "uint256",
          "name": "_aid",
          "type": "uint256"
        }
      ],
      "name": "revoke",
      "outputs": [],
      "stateMutability": "nonpayable",
      "type": "function"
    },
    {
      "inputs": [
        {
          "internalType": "address",
          "name": "_nftAddress",
          "type": "address"
        },
        {
          "internalType": "uint256[]",
          "name": "_tokenIds",
          "type": "uint256[]"
        },
        {
          "internalType": "uint256",
          "name": "_price",
          "type": "uint256"
        }
      ],
      "name": "sellItem",
      "outputs": [],
      "stateMutability": "nonpayable",
      "type": "function"
    },
    {
      "inputs": [
        {
          "internalType": "address",
          "name": "newOwner",
          "type": "address"
        }
      ],
      "name": "transferOwnership",
      "outputs": [],
      "stateMutability": "nonpayable",
      "type": "function"
    },
    {
      "inputs": [
        {
          "internalType": "address",
          "name": "to",
          "type": "address"
        }
      ],
      "name": "withdraw",
      "outputs": [],
      "stateMutability": "nonpayable",
      "type": "function"
    }
  ],
  "bytecode": "0x60a06040523480156200001157600080fd5b50604051620024da380380620024da833981810160405281019062000037919062000178565b620000576200004b6200009560201b60201c565b6200009d60201b60201c565b8073ffffffffffffffffffffffffffffffffffffffff1660808173ffffffffffffffffffffffffffffffffffffffff1660601b8152505050620001f2565b600033905090565b60008060009054906101000a900473ffffffffffffffffffffffffffffffffffffffff169050816000806101000a81548173ffffffffffffffffffffffffffffffffffffffff021916908373ffffffffffffffffffffffffffffffffffffffff1602179055508173ffffffffffffffffffffffffffffffffffffffff168173ffffffffffffffffffffffffffffffffffffffff167f8be0079c531659141344cd1fd0a4f28419497f9722a3daafe3b4186f6b6457e060405160405180910390a35050565b6000815190506200017281620001d8565b92915050565b6000602082840312156200018b57600080fd5b60006200019b8482850162000161565b91505092915050565b6000620001b182620001b8565b9050919050565b600073ffffffffffffffffffffffffffffffffffffffff82169050919050565b620001e381620001a4565b8114620001ef57600080fd5b50565b60805160601c6122a662000234600039600081816104980152818161053a015281816105e801528181610d3901528181610e370152610e6301526122a66000f3fe608060405234801561001057600080fd5b50600436106100a95760003560e01c8063689470d611610071578063689470d614610166578063715018a6146101825780638da5cb5b1461018c57806396da43b6146101aa578063efef39a1146101da578063f2fde38b146101f6576100a9565b806320c5429b146100ae578063253f65e8146100ca57806351cff8d9146100e8578063571a26a01461010457806361b1e45f14610136575b600080fd5b6100c860048036038101906100c39190611857565b610212565b005b6100d2610496565b6040516100df9190611b89565b60405180910390f35b61010260048036038101906100fd9190611799565b6104ba565b005b61011e60048036038101906101199190611857565b610612565b60405161012d93929190611ba4565b60405180910390f35b610150600480360381019061014b9190611857565b61067c565b60405161015d9190611d61565b60405180910390f35b610180600480360381019061017b91906117c2565b61088a565b005b61018a610b5b565b005b610194610be3565b6040516101a19190611b89565b60405180910390f35b6101c460048036038101906101bf9190611857565b610c0c565b6040516101d19190611c04565b60405180910390f35b6101f460048036038101906101ef9190611857565b610c2c565b005b610210600480360381019061020b9190611799565b61109d565b005b6000600260008381526020019081526020016000206040518060800160405290816000820160009054906101000a900473ffffffffffffffffffffffffffffffffffffffff1673ffffffffffffffffffffffffffffffffffffffff1673ffffffffffffffffffffffffffffffffffffffff1681526020016001820160009054906101000a900473ffffffffffffffffffffffffffffffffffffffff1673ffffffffffffffffffffffffffffffffffffffff1673ffffffffffffffffffffffffffffffffffffffff1681526020016002820180548060200260200160405190810160405280929190818152602001828054801561032d57602002820191906000526020600020905b815481526020019060010190808311610319575b505050505081526020016003820154815250509050806020015173ffffffffffffffffffffffffffffffffffffffff163373ffffffffffffffffffffffffffffffffffffffff16146103b4576040517f08c379a00000000000000000000000000000000000000000000000000000000081526004016103ab90611ca1565b60405180910390fd5b60026000838152602001908152602001600020600080820160006101000a81549073ffffffffffffffffffffffffffffffffffffffff02191690556001820160006101000a81549073ffffffffffffffffffffffffffffffffffffffff0219169055600282016000610426919061161c565b6003820160009055505060026003600084815260200190815260200160002060006101000a81548160ff0219169083600281111561048d577f4e487b7100000000000000000000000000000000000000000000000000000000600052602160045260246000fd5b02179055505050565b7f000000000000000000000000000000000000000000000000000000000000000081565b6104c2611195565b73ffffffffffffffffffffffffffffffffffffffff166104e0610be3565b73ffffffffffffffffffffffffffffffffffffffff1614610536576040517f08c379a000000000000000000000000000000000000000000000000000000000815260040161052d90611d01565b60405180910390fd5b60007f000000000000000000000000000000000000000000000000000000000000000073ffffffffffffffffffffffffffffffffffffffff166370a08231306040518263ffffffff1660e01b81526004016105919190611b89565b60206040518083038186803b1580156105a957600080fd5b505afa1580156105bd573d6000803e3d6000fd5b505050506040513d601f19601f820116820180604052508101906105e19190611880565b905061060e7f0000000000000000000000000000000000000000000000000000000000000000838361119d565b5050565b60026020528060005260406000206000915090508060000160009054906101000a900473ffffffffffffffffffffffffffffffffffffffff16908060010160009054906101000a900473ffffffffffffffffffffffffffffffffffffffff16908060030154905083565b61068461163d565b600060028111156106be577f4e487b7100000000000000000000000000000000000000000000000000000000600052602160045260246000fd5b6003600084815260200190815260200160002060009054906101000a900460ff166002811115610717577f4e487b7100000000000000000000000000000000000000000000000000000000600052602160045260246000fd5b14610757576040517f08c379a000000000000000000000000000000000000000000000000000000000815260040161074e90611ce1565b60405180910390fd5b600260008381526020019081526020016000206040518060800160405290816000820160009054906101000a900473ffffffffffffffffffffffffffffffffffffffff1673ffffffffffffffffffffffffffffffffffffffff1673ffffffffffffffffffffffffffffffffffffffff1681526020016001820160009054906101000a900473ffffffffffffffffffffffffffffffffffffffff1673ffffffffffffffffffffffffffffffffffffffff1673ffffffffffffffffffffffffffffffffffffffff1681526020016002820180548060200260200160405190810160405280929190818152602001828054801561087057602002820191906000526020600020905b81548152602001906001019080831161085c575b505050505081526020016003820154815250509050919050565b600033905060005b8484905081101561095e578573ffffffffffffffffffffffffffffffffffffffff166342842e0e83308888868181106108f4577f4e487b7100000000000000000000000000000000000000000000000000000000600052603260045260246000fd5b905060200201356040518463ffffffff1660e01b815260040161091993929190611ba4565b600060405180830381600087803b15801561093357600080fd5b505af1158015610947573d6000803e3d6000fd5b50505050808061095690611f4d565b915050610892565b506000610969611223565b905060405180608001604052808773ffffffffffffffffffffffffffffffffffffffff1681526020018373ffffffffffffffffffffffffffffffffffffffff168152602001868680806020026020016040519081016040528093929190818152602001838360200280828437600081840152601f19601f820116905080830192505050505050508152602001848152506002600083815260200190815260200160002060008201518160000160006101000a81548173ffffffffffffffffffffffffffffffffffffffff021916908373ffffffffffffffffffffffffffffffffffffffff16021790555060208201518160010160006101000a81548173ffffffffffffffffffffffffffffffffffffffff021916908373ffffffffffffffffffffffffffffffffffffffff1602179055506040820151816002019080519060200190610ab6929190611691565b506060820151816003015590505060006003600083815260200190815260200160002060006101000a81548160ff02191690836002811115610b21577f4e487b7100000000000000000000000000000000000000000000000000000000600052602160045260246000fd5b0217905550807f7b52bbd5b00189705ab53e6d2508530f5b3597f73a7885da520068b579c9567660405160405180910390a2505050505050565b610b63611195565b73ffffffffffffffffffffffffffffffffffffffff16610b81610be3565b73ffffffffffffffffffffffffffffffffffffffff1614610bd7576040517f08c379a0000000000000000000000000000000000000000000000000000000008152600401610bce90611d01565b60405180910390fd5b610be1600061123e565b565b60008060009054906101000a900473ffffffffffffffffffffffffffffffffffffffff16905090565b60036020528060005260406000206000915054906101000a900460ff1681565b60006002811115610c66577f4e487b7100000000000000000000000000000000000000000000000000000000600052602160045260246000fd5b6003600083815260200190815260200160002060009054906101000a900460ff166002811115610cbf577f4e487b7100000000000000000000000000000000000000000000000000000000600052602160045260246000fd5b14610cff576040517f08c379a0000000000000000000000000000000000000000000000000000000008152600401610cf690611c61565b60405180910390fd5b60003390506000600260008481526020019081526020016000209050600081600301548260020180549050610d349190611e1f565b9050807f000000000000000000000000000000000000000000000000000000000000000073ffffffffffffffffffffffffffffffffffffffff166370a08231856040518263ffffffff1660e01b8152600401610d909190611b89565b60206040518083038186803b158015610da857600080fd5b505afa158015610dbc573d6000803e3d6000fd5b505050506040513d601f19601f82011682018060405250810190610de09190611880565b1015610e21576040517f08c379a0000000000000000000000000000000000000000000000000000000008152600401610e1890611cc1565b60405180910390fd5b6000606482610e309190611dee565b9050610e5e7f0000000000000000000000000000000000000000000000000000000000000000853084611302565b610eb97f0000000000000000000000000000000000000000000000000000000000000000858560010160009054906101000a900473ffffffffffffffffffffffffffffffffffffffff168486610eb49190611e79565b611302565b60005b8360020180549050811015610fb7578360000160009054906101000a900473ffffffffffffffffffffffffffffffffffffffff1673ffffffffffffffffffffffffffffffffffffffff166342842e0e3087876002018581548110610f49577f4e487b7100000000000000000000000000000000000000000000000000000000600052603260045260246000fd5b90600052602060002001546040518463ffffffff1660e01b8152600401610f7293929190611ba4565b600060405180830381600087803b158015610f8c57600080fd5b505af1158015610fa0573d6000803e3d6000fd5b505050508080610faf90611f4d565b915050610ebc565b5060026000868152602001908152602001600020600080820160006101000a81549073ffffffffffffffffffffffffffffffffffffffff02191690556001820160006101000a81549073ffffffffffffffffffffffffffffffffffffffff021916905560028201600061102a919061161c565b6003820160009055505060016003600087815260200190815260200160002060006101000a81548160ff02191690836002811115611091577f4e487b7100000000000000000000000000000000000000000000000000000000600052602160045260246000fd5b02179055505050505050565b6110a5611195565b73ffffffffffffffffffffffffffffffffffffffff166110c3610be3565b73ffffffffffffffffffffffffffffffffffffffff1614611119576040517f08c379a000000000000000000000000000000000000000000000000000000000815260040161111090611d01565b60405180910390fd5b600073ffffffffffffffffffffffffffffffffffffffff168173ffffffffffffffffffffffffffffffffffffffff161415611189576040517f08c379a000000000000000000000000000000000000000000000000000000000815260040161118090611c41565b60405180910390fd5b6111928161123e565b50565b600033905090565b61121e8363a9059cbb60e01b84846040516024016111bc929190611bdb565b604051602081830303815290604052907bffffffffffffffffffffffffffffffffffffffffffffffffffffffff19166020820180517bffffffffffffffffffffffffffffffffffffffffffffffffffffffff838183161783525050505061138b565b505050565b600061122f6001611452565b6112396001611468565b905090565b60008060009054906101000a900473ffffffffffffffffffffffffffffffffffffffff169050816000806101000a81548173ffffffffffffffffffffffffffffffffffffffff021916908373ffffffffffffffffffffffffffffffffffffffff1602179055508173ffffffffffffffffffffffffffffffffffffffff168173ffffffffffffffffffffffffffffffffffffffff167f8be0079c531659141344cd1fd0a4f28419497f9722a3daafe3b4186f6b6457e060405160405180910390a35050565b611385846323b872dd60e01b85858560405160240161132393929190611ba4565b604051602081830303815290604052907bffffffffffffffffffffffffffffffffffffffffffffffffffffffff19166020820180517bffffffffffffffffffffffffffffffffffffffffffffffffffffffff838183161783525050505061138b565b50505050565b60006113ed826040518060400160405280602081526020017f5361666545524332303a206c6f772d6c6576656c2063616c6c206661696c65648152508573ffffffffffffffffffffffffffffffffffffffff166114769092919063ffffffff16565b905060008151111561144d578080602001905181019061140d919061182e565b61144c576040517f08c379a000000000000000000000000000000000000000000000000000000000815260040161144390611d41565b60405180910390fd5b5b505050565b6001816000016000828254019250508190555050565b600081600001549050919050565b6060611485848460008561148e565b90509392505050565b6060824710156114d3576040517f08c379a00000000000000000000000000000000000000000000000000000000081526004016114ca90611c81565b60405180910390fd5b6114dc856115a2565b61151b576040517f08c379a000000000000000000000000000000000000000000000000000000000815260040161151290611d21565b60405180910390fd5b6000808673ffffffffffffffffffffffffffffffffffffffff1685876040516115449190611b72565b60006040518083038185875af1925050503d8060008114611581576040519150601f19603f3d011682016040523d82523d6000602084013e611586565b606091505b50915091506115968282866115b5565b92505050949350505050565b600080823b905060008111915050919050565b606083156115c557829050611615565b6000835111156115d85782518084602001fd5b816040517f08c379a000000000000000000000000000000000000000000000000000000000815260040161160c9190611c1f565b60405180910390fd5b9392505050565b508054600082559060005260206000209081019061163a91906116de565b50565b6040518060800160405280600073ffffffffffffffffffffffffffffffffffffffff168152602001600073ffffffffffffffffffffffffffffffffffffffff16815260200160608152602001600081525090565b8280548282559060005260206000209081019282156116cd579160200282015b828111156116cc5782518255916020019190600101906116b1565b5b5090506116da91906116de565b5090565b5b808211156116f75760008160009055506001016116df565b5090565b60008135905061170a8161222b565b92915050565b60008083601f84011261172257600080fd5b8235905067ffffffffffffffff81111561173b57600080fd5b60208301915083602082028301111561175357600080fd5b9250929050565b60008151905061176981612242565b92915050565b60008135905061177e81612259565b92915050565b60008151905061179381612259565b92915050565b6000602082840312156117ab57600080fd5b60006117b9848285016116fb565b91505092915050565b600080600080606085870312156117d857600080fd5b60006117e6878288016116fb565b945050602085013567ffffffffffffffff81111561180357600080fd5b61180f87828801611710565b935093505060406118228782880161176f565b91505092959194509250565b60006020828403121561184057600080fd5b600061184e8482850161175a565b91505092915050565b60006020828403121561186957600080fd5b60006118778482850161176f565b91505092915050565b60006020828403121561189257600080fd5b60006118a084828501611784565b91505092915050565b60006118b58383611b54565b60208301905092915050565b6118ca81611ead565b82525050565b6118d981611ead565b82525050565b60006118ea82611d93565b6118f48185611dc1565b93506118ff83611d83565b8060005b8381101561193057815161191788826118a9565b975061192283611db4565b925050600181019050611903565b5085935050505092915050565b600061194882611d9e565b6119528185611dd2565b9350611962818560208601611f1a565b80840191505092915050565b61197781611f08565b82525050565b600061198882611da9565b6119928185611ddd565b93506119a2818560208601611f1a565b6119ab81612023565b840191505092915050565b60006119c3602683611ddd565b91506119ce82612034565b604082019050919050565b60006119e6601a83611ddd565b91506119f182612083565b602082019050919050565b6000611a09602683611ddd565b9150611a14826120ac565b604082019050919050565b6000611a2c601783611ddd565b9150611a37826120fb565b602082019050919050565b6000611a4f601a83611ddd565b9150611a5a82612124565b602082019050919050565b6000611a72601483611ddd565b9150611a7d8261214d565b602082019050919050565b6000611a95602083611ddd565b9150611aa082612176565b602082019050919050565b6000611ab8601d83611ddd565b9150611ac38261219f565b602082019050919050565b6000611adb602a83611ddd565b9150611ae6826121c8565b604082019050919050565b6000608083016000830151611b0960008601826118c1565b506020830151611b1c60208601826118c1565b5060408301518482036040860152611b3482826118df565b9150506060830151611b496060860182611b54565b508091505092915050565b611b5d81611efe565b82525050565b611b6c81611efe565b82525050565b6000611b7e828461193d565b915081905092915050565b6000602082019050611b9e60008301846118d0565b92915050565b6000606082019050611bb960008301866118d0565b611bc660208301856118d0565b611bd36040830184611b63565b949350505050565b6000604082019050611bf060008301856118d0565b611bfd6020830184611b63565b9392505050565b6000602082019050611c19600083018461196e565b92915050565b60006020820190508181036000830152611c39818461197d565b905092915050565b60006020820190508181036000830152611c5a816119b6565b9050919050565b60006020820190508181036000830152611c7a816119d9565b9050919050565b60006020820190508181036000830152611c9a816119fc565b9050919050565b60006020820190508181036000830152611cba81611a1f565b9050919050565b60006020820190508181036000830152611cda81611a42565b9050919050565b60006020820190508181036000830152611cfa81611a65565b9050919050565b60006020820190508181036000830152611d1a81611a88565b9050919050565b60006020820190508181036000830152611d3a81611aab565b9050919050565b60006020820190508181036000830152611d5a81611ace565b9050919050565b60006020820190508181036000830152611d7b8184611af1565b905092915050565b6000819050602082019050919050565b600081519050919050565b600081519050919050565b600081519050919050565b6000602082019050919050565b600082825260208201905092915050565b600081905092915050565b600082825260208201905092915050565b6000611df982611efe565b9150611e0483611efe565b925082611e1457611e13611fc5565b5b828204905092915050565b6000611e2a82611efe565b9150611e3583611efe565b9250817fffffffffffffffffffffffffffffffffffffffffffffffffffffffffffffffff0483118215151615611e6e57611e6d611f96565b5b828202905092915050565b6000611e8482611efe565b9150611e8f83611efe565b925082821015611ea257611ea1611f96565b5b828203905092915050565b6000611eb882611ede565b9050919050565b60008115159050919050565b6000819050611ed982612217565b919050565b600073ffffffffffffffffffffffffffffffffffffffff82169050919050565b6000819050919050565b6000611f1382611ecb565b9050919050565b60005b83811015611f38578082015181840152602081019050611f1d565b83811115611f47576000848401525b50505050565b6000611f5882611efe565b91507fffffffffffffffffffffffffffffffffffffffffffffffffffffffffffffffff821415611f8b57611f8a611f96565b5b600182019050919050565b7f4e487b7100000000000000000000000000000000000000000000000000000000600052601160045260246000fd5b7f4e487b7100000000000000000000000000000000000000000000000000000000600052601260045260246000fd5b7f4e487b7100000000000000000000000000000000000000000000000000000000600052602160045260246000fd5b6000601f19601f8301169050919050565b7f4f776e61626c653a206e6577206f776e657220697320746865207a65726f206160008201527f6464726573730000000000000000000000000000000000000000000000000000602082015250565b7f414d3a20496e76616c69642061756374696f6e20737461747573000000000000600082015250565b7f416464726573733a20696e73756666696369656e742062616c616e636520666f60008201527f722063616c6c0000000000000000000000000000000000000000000000000000602082015250565b7f414d3a20556e617574686572697a6564207265766f6b65000000000000000000600082015250565b7f414d3a2042757965722066756e6473206e6f7420656e6f756768000000000000600082015250565b7f414d3a2041756374696f6e2066696e6973686564000000000000000000000000600082015250565b7f4f776e61626c653a2063616c6c6572206973206e6f7420746865206f776e6572600082015250565b7f416464726573733a2063616c6c20746f206e6f6e2d636f6e7472616374000000600082015250565b7f5361666545524332303a204552433230206f7065726174696f6e20646964206e60008201527f6f74207375636365656400000000000000000000000000000000000000000000602082015250565b6003811061222857612227611ff4565b5b50565b61223481611ead565b811461223f57600080fd5b50565b61224b81611ebf565b811461225657600080fd5b50565b61226281611efe565b811461226d57600080fd5b5056fea26469706673582212209f80edc6b35699916f3a4a91afcc4a6e0ebb95252b2c0dd351656820459ade3e64736f6c63430008040033",
  "linkReferences": {},
  "deployedLinkReferences": {}
}