{
  "_format": "hh-sol-artifact-1",
  "contractName": "CarCarGameLogic",
  "sourceName": "contracts/CarCarGameLogic.sol",
  "abi": [
    {
      "inputs": [
        {
          "internalType": "address",
          "name": "_nftAddress",
          "type": "address"
        },
        {
          "internalType": "address",
          "name": "_cctAddress",
          "type": "address"
        },
        {
          "internalType": "address",
          "name": "_carRepairFeeAddress",
          "type": "address"
        },
        {
          "internalType": "address",
          "name": "_nftOwner",
          "type": "address"
        }
      ],
      "stateMutability": "nonpayable",
      "type": "constructor"
    },
    {
      "anonymous": false,
      "inputs": [
        {
          "indexed": true,
          "internalType": "address",
          "name": "player",
          "type": "address"
        },
        {
          "indexed": true,
          "internalType": "uint256",
          "name": "tokenId",
          "type": "uint256"
        },
        {
          "indexed": true,
          "internalType": "uint256",
          "name": "amount",
          "type": "uint256"
        }
      ],
      "name": "BlindBoxDelivered",
      "type": "event"
    },
    {
      "anonymous": false,
      "inputs": [
        {
          "indexed": true,
          "internalType": "address",
          "name": "player",
          "type": "address"
        },
        {
          "indexed": true,
          "internalType": "uint256",
          "name": "carClass",
          "type": "uint256"
        }
      ],
      "name": "CarRepaired",
      "type": "event"
    },
    {
      "anonymous": false,
      "inputs": [
        {
          "indexed": true,
          "internalType": "address",
          "name": "player",
          "type": "address"
        }
      ],
      "name": "OpenBlindBox",
      "type": "event"
    },
    {
      "anonymous": false,
      "inputs": [
        {
          "indexed": true,
          "internalType": "address",
          "name": "previousOwner",
          "type": "address"
        },
        {
          "indexed": true,
          "internalType": "address",
          "name": "newOwner",
          "type": "address"
        }
      ],
      "name": "OwnershipTransferred",
      "type": "event"
    },
    {
      "anonymous": false,
      "inputs": [
        {
          "indexed": true,
          "internalType": "address",
          "name": "player",
          "type": "address"
        }
      ],
      "name": "PlayerCarBroken",
      "type": "event"
    },
    {
      "anonymous": false,
      "inputs": [
        {
          "indexed": true,
          "internalType": "address",
          "name": "player",
          "type": "address"
        }
      ],
      "name": "PlayerEnterGame",
      "type": "event"
    },
    {
      "anonymous": false,
      "inputs": [
        {
          "indexed": true,
          "internalType": "address",
          "name": "player",
          "type": "address"
        }
      ],
      "name": "PlayerExitGame",
      "type": "event"
    },
    {
      "inputs": [
        {
          "internalType": "uint256",
          "name": "carClass",
          "type": "uint256"
        }
      ],
      "name": "carBroken",
      "outputs": [
        {
          "internalType": "bool",
          "name": "",
          "type": "bool"
        }
      ],
      "stateMutability": "view",
      "type": "function"
    },
    {
      "inputs": [],
      "name": "carRepairFeeAddress",
      "outputs": [
        {
          "internalType": "address",
          "name": "",
          "type": "address"
        }
      ],
      "stateMutability": "view",
      "type": "function"
    },
    {
      "inputs": [],
      "name": "cctAddress",
      "outputs": [
        {
          "internalType": "contract IERC20",
          "name": "",
          "type": "address"
        }
      ],
      "stateMutability": "view",
      "type": "function"
    },
    {
      "inputs": [],
      "name": "claimWinnerBlindBox",
      "outputs": [],
      "stateMutability": "nonpayable",
      "type": "function"
    },
    {
      "inputs": [
        {
          "internalType": "address",
          "name": "player",
          "type": "address"
        },
        {
          "internalType": "uint256",
          "name": "tokenId",
          "type": "uint256"
        },
        {
          "internalType": "uint256",
          "name": "amount",
          "type": "uint256"
        }
      ],
      "name": "deliverOpenedBlindBox",
      "outputs": [],
      "stateMutability": "nonpayable",
      "type": "function"
    },
    {
      "inputs": [
        {
          "internalType": "address[]",
          "name": "addrs",
          "type": "address[]"
        },
        {
          "internalType": "uint256[]",
          "name": "amounts",
          "type": "uint256[]"
        }
      ],
      "name": "deliverRepairFee",
      "outputs": [],
      "stateMutability": "nonpayable",
      "type": "function"
    },
    {
      "inputs": [
        {
          "internalType": "uint256",
          "name": "carClass",
          "type": "uint256"
        }
      ],
      "name": "enterGame",
      "outputs": [],
      "stateMutability": "nonpayable",
      "type": "function"
    },
    {
      "inputs": [
        {
          "internalType": "uint256",
          "name": "carClass",
          "type": "uint256"
        }
      ],
      "name": "exitGame",
      "outputs": [],
      "stateMutability": "nonpayable",
      "type": "function"
    },
    {
      "inputs": [
        {
          "internalType": "address",
          "name": "to",
          "type": "address"
        },
        {
          "internalType": "uint256",
          "name": "amount",
          "type": "uint256"
        }
      ],
      "name": "giveAwayWinnerFragment",
      "outputs": [],
      "stateMutability": "nonpayable",
      "type": "function"
    },
    {
      "inputs": [
        {
          "internalType": "address",
          "name": "",
          "type": "address"
        },
        {
          "internalType": "uint256",
          "name": "",
          "type": "uint256"
        }
      ],
      "name": "isCarBroken",
      "outputs": [
        {
          "internalType": "bool",
          "name": "",
          "type": "bool"
        }
      ],
      "stateMutability": "view",
      "type": "function"
    },
    {
      "inputs": [
        {
          "internalType": "address",
          "name": "",
          "type": "address"
        },
        {
          "internalType": "uint256",
          "name": "",
          "type": "uint256"
        }
      ],
      "name": "isCarInGame",
      "outputs": [
        {
          "internalType": "bool",
          "name": "",
          "type": "bool"
        }
      ],
      "stateMutability": "view",
      "type": "function"
    },
    {
      "inputs": [],
      "name": "nftAddress",
      "outputs": [
        {
          "internalType": "address",
          "name": "",
          "type": "address"
        }
      ],
      "stateMutability": "view",
      "type": "function"
    },
    {
      "inputs": [],
      "name": "nftOwner",
      "outputs": [
        {
          "internalType": "address",
          "name": "",
          "type": "address"
        }
      ],
      "stateMutability": "view",
      "type": "function"
    },
    {
      "inputs": [
        {
          "internalType": "address",
          "name": "",
          "type": "address"
        },
        {
          "internalType": "address",
          "name": "",
          "type": "address"
        },
        {
          "internalType": "uint256[]",
          "name": "",
          "type": "uint256[]"
        },
        {
          "internalType": "uint256[]",
          "name": "",
          "type": "uint256[]"
        },
        {
          "internalType": "bytes",
          "name": "",
          "type": "bytes"
        }
      ],
      "name": "onERC1155BatchReceived",
      "outputs": [
        {
          "internalType": "bytes4",
          "name": "",
          "type": "bytes4"
        }
      ],
      "stateMutability": "nonpayable",
      "type": "function"
    },
    {
      "inputs": [
        {
          "internalType": "address",
          "name": "",
          "type": "address"
        },
        {
          "internalType": "address",
          "name": "",
          "type": "address"
        },
        {
          "internalType": "uint256",
          "name": "",
          "type": "uint256"
        },
        {
          "internalType": "uint256",
          "name": "",
          "type": "uint256"
        },
        {
          "internalType": "bytes",
          "name": "",
          "type": "bytes"
        }
      ],
      "name": "onERC1155Received",
      "outputs": [
        {
          "internalType": "bytes4",
          "name": "",
          "type": "bytes4"
        }
      ],
      "stateMutability": "nonpayable",
      "type": "function"
    },
    {
      "inputs": [],
      "name": "openWinnerBlindBoxRequest",
      "outputs": [],
      "stateMutability": "nonpayable",
      "type": "function"
    },
    {
      "inputs": [],
      "name": "owner",
      "outputs": [
        {
          "internalType": "address",
          "name": "",
          "type": "address"
        }
      ],
      "stateMutability": "view",
      "type": "function"
    },
    {
      "inputs": [],
      "name": "renounceOwnership",
      "outputs": [],
      "stateMutability": "nonpayable",
      "type": "function"
    },
    {
      "inputs": [
        {
          "internalType": "uint256",
          "name": "carClass",
          "type": "uint256"
        }
      ],
      "name": "repair",
      "outputs": [],
      "stateMutability": "nonpayable",
      "type": "function"
    },
    {
      "inputs": [
        {
          "internalType": "address",
          "name": "player",
          "type": "address"
        },
        {
          "internalType": "uint256",
          "name": "carClass",
          "type": "uint256"
        }
      ],
      "name": "setCarBroken",
      "outputs": [],
      "stateMutability": "nonpayable",
      "type": "function"
    },
    {
      "inputs": [
        {
          "internalType": "bytes4",
          "name": "interfaceId",
          "type": "bytes4"
        }
      ],
      "name": "supportsInterface",
      "outputs": [
        {
          "internalType": "bool",
          "name": "",
          "type": "bool"
        }
      ],
      "stateMutability": "view",
      "type": "function"
    },
    {
      "inputs": [
        {
          "internalType": "address",
          "name": "newOwner",
          "type": "address"
        }
      ],
      "name": "transferOwnership",
      "outputs": [],
      "stateMutability": "nonpayable",
      "type": "function"
    }
  ],
  "bytecode": "0x60806040523480156200001157600080fd5b506040516200393738038062003937833981810160405281019062000037919062000248565b620000576200004b6200016560201b60201c565b6200016d60201b60201c565b83600360006101000a81548173ffffffffffffffffffffffffffffffffffffffff021916908373ffffffffffffffffffffffffffffffffffffffff16021790555082600460006101000a81548173ffffffffffffffffffffffffffffffffffffffff021916908373ffffffffffffffffffffffffffffffffffffffff16021790555081600560006101000a81548173ffffffffffffffffffffffffffffffffffffffff021916908373ffffffffffffffffffffffffffffffffffffffff16021790555080600660006101000a81548173ffffffffffffffffffffffffffffffffffffffff021916908373ffffffffffffffffffffffffffffffffffffffff1602179055505050505062000302565b600033905090565b60008060009054906101000a900473ffffffffffffffffffffffffffffffffffffffff169050816000806101000a81548173ffffffffffffffffffffffffffffffffffffffff021916908373ffffffffffffffffffffffffffffffffffffffff1602179055508173ffffffffffffffffffffffffffffffffffffffff168173ffffffffffffffffffffffffffffffffffffffff167f8be0079c531659141344cd1fd0a4f28419497f9722a3daafe3b4186f6b6457e060405160405180910390a35050565b6000815190506200024281620002e8565b92915050565b600080600080608085870312156200025f57600080fd5b60006200026f8782880162000231565b9450506020620002828782880162000231565b9350506040620002958782880162000231565b9250506060620002a88782880162000231565b91505092959194509250565b6000620002c182620002c8565b9050919050565b600073ffffffffffffffffffffffffffffffffffffffff82169050919050565b620002f381620002b4565b8114620002ff57600080fd5b50565b61362580620003126000396000f3fe608060405234801561001057600080fd5b50600436106101425760003560e01c80638da5cb5b116100b8578063bc197c811161007c578063bc197c8114610329578063c7f4f4ae14610359578063ec95587914610375578063f23a6e61146103a5578063f2fde38b146103d5578063f71ca9f5146103f157610142565b80638da5cb5b146102995780639256bf57146102b75780639ae92eef146102e7578063ad38ed4b14610303578063b274bf0f1461031f57610142565b80634c39a7491161010a5780634c39a749146101ff5780635bf8633a1461021d57806361c4454f1461023b57806368a1a8c6146102575780636caf3d6014610273578063715018a61461028f57610142565b806301ffc9a71461014757806303bd34601461017757806308c1a37814610195578063253f65e8146101c557806343d6582b146101e3575b600080fd5b610161600480360381019061015c9190612609565b6103fb565b60405161016e9190612cbf565b60405180910390f35b61017f610475565b60405161018c9190612a2f565b60405180910390f35b6101af60048036038101906101aa91906124e0565b61049b565b6040516101bc9190612cbf565b60405180910390f35b6101cd6104ca565b6040516101da9190612cf5565b60405180910390f35b6101fd60048036038101906101f89190612632565b6104f0565b005b61020761082c565b6040516102149190612a2f565b60405180910390f35b610225610852565b6040516102329190612a2f565b60405180910390f35b610255600480360381019061025091906124e0565b610878565b005b610271600480360381019061026c9190612632565b610a46565b005b61028d6004803603810190610288919061256b565b610c1c565b005b610297610de4565b005b6102a1610e6c565b6040516102ae9190612a2f565b60405180910390f35b6102d160048036038101906102cc9190612632565b610e95565b6040516102de9190612cbf565b60405180910390f35b61030160048036038101906102fc91906124e0565b610efc565b005b61031d60048036038101906103189190612632565b611185565b005b610327611370565b005b610343600480360381019061033e9190612392565b611696565b6040516103509190612cda565b60405180910390f35b610373600480360381019061036e919061251c565b6116ab565b005b61038f600480360381019061038a91906124e0565b611a81565b60405161039c9190612cbf565b60405180910390f35b6103bf60048036038101906103ba9190612451565b611ab0565b6040516103cc9190612cda565b60405180910390f35b6103ef60048036038101906103ea9190612369565b611ac5565b005b6103f9611bbd565b005b60007f4e2312e0000000000000000000000000000000000000000000000000000000007bffffffffffffffffffffffffffffffffffffffffffffffffffffffff1916827bffffffffffffffffffffffffffffffffffffffffffffffffffffffff1916148061046e575061046d82611cf8565b5b9050919050565b600560009054906101000a900473ffffffffffffffffffffffffffffffffffffffff1681565b60016020528160005260406000206020528060005260406000206000915091509054906101000a900460ff1681565b600460009054906101000a900473ffffffffffffffffffffffffffffffffffffffff1681565b6000339050600260008273ffffffffffffffffffffffffffffffffffffffff1673ffffffffffffffffffffffffffffffffffffffff168152602001908152602001600020600083815260200190815260200160002060009054906101000a900460ff1615610593576040517f08c379a000000000000000000000000000000000000000000000000000000000815260040161058a90612eb2565b60405180910390fd5b6001600260008373ffffffffffffffffffffffffffffffffffffffff1673ffffffffffffffffffffffffffffffffffffffff168152602001908152602001600020600084815260200190815260200160002060006101000a81548160ff021916908315150217905550600360009054906101000a900473ffffffffffffffffffffffffffffffffffffffff1673ffffffffffffffffffffffffffffffffffffffff1663e985e9c582306040518363ffffffff1660e01b8152600401610659929190612a4a565b60206040518083038186803b15801561067157600080fd5b505afa158015610685573d6000803e3d6000fd5b505050506040513d601f19601f820116820180604052508101906106a991906125e0565b6106e8576040517f08c379a00000000000000000000000000000000000000000000000000000000081526004016106df90612df2565b60405180910390fd5b6000600160008373ffffffffffffffffffffffffffffffffffffffff1673ffffffffffffffffffffffffffffffffffffffff168152602001908152602001600020600084815260200190815260200160002060006101000a81548160ff021916908315150217905550600360009054906101000a900473ffffffffffffffffffffffffffffffffffffffff1673ffffffffffffffffffffffffffffffffffffffff1663f242432a82308560016040518563ffffffff1660e01b81526004016107b39493929190612aaa565b600060405180830381600087803b1580156107cd57600080fd5b505af11580156107e1573d6000803e3d6000fd5b505050508073ffffffffffffffffffffffffffffffffffffffff167fb9ce3a6f83e26002ad47d527f7eb0d1ee923e2032d592131e47d87578e824d6660405160405180910390a25050565b600660009054906101000a900473ffffffffffffffffffffffffffffffffffffffff1681565b600360009054906101000a900473ffffffffffffffffffffffffffffffffffffffff1681565b610880611d62565b73ffffffffffffffffffffffffffffffffffffffff1661089e610e6c565b73ffffffffffffffffffffffffffffffffffffffff16146108f4576040517f08c379a00000000000000000000000000000000000000000000000000000000081526004016108eb90612e32565b60405180910390fd5b600073ffffffffffffffffffffffffffffffffffffffff168273ffffffffffffffffffffffffffffffffffffffff161415610964576040517f08c379a000000000000000000000000000000000000000000000000000000000815260040161095b90612db2565b60405180910390fd5b610a418260058360405160240161097d93929190612bba565b6040516020818303038152906040527f156e29f6000000000000000000000000000000000000000000000000000000007bffffffffffffffffffffffffffffffffffffffffffffffffffffffff19166020820180517bffffffffffffffffffffffffffffffffffffffffffffffffffffffff8381831617835250505050600360009054906101000a900473ffffffffffffffffffffffffffffffffffffffff1673ffffffffffffffffffffffffffffffffffffffff16611d6a90919063ffffffff16565b505050565b6000339050600160008273ffffffffffffffffffffffffffffffffffffffff1673ffffffffffffffffffffffffffffffffffffffff168152602001908152602001600020600083815260200190815260200160002060009054906101000a900460ff16610ae8576040517f08c379a0000000000000000000000000000000000000000000000000000000008152600401610adf90612ef2565b60405180910390fd5b6000600160008373ffffffffffffffffffffffffffffffffffffffff1673ffffffffffffffffffffffffffffffffffffffff168152602001908152602001600020600084815260200190815260200160002060006101000a81548160ff021916908315150217905550610b82600460009054906101000a900473ffffffffffffffffffffffffffffffffffffffff16826001611388611db4565b610bd4600460009054906101000a900473ffffffffffffffffffffffffffffffffffffffff1682600560009054906101000a900473ffffffffffffffffffffffffffffffffffffffff16611388611db4565b818173ffffffffffffffffffffffffffffffffffffffff167ffd1b7d3038545bc4556db56930eddda6929ae3834c05867c9b71fc4db8af8b8160405160405180910390a35050565b610c24611d62565b73ffffffffffffffffffffffffffffffffffffffff16610c42610e6c565b73ffffffffffffffffffffffffffffffffffffffff1614610c98576040517f08c379a0000000000000000000000000000000000000000000000000000000008152600401610c8f90612e32565b60405180910390fd5b818190508484905014610ce0576040517f08c379a0000000000000000000000000000000000000000000000000000000008152600401610cd790612e12565b60405180910390fd5b60005b84849050811015610ddd57610dca600460009054906101000a900473ffffffffffffffffffffffffffffffffffffffff16600560009054906101000a900473ffffffffffffffffffffffffffffffffffffffff16878785818110610d70577f4e487b7100000000000000000000000000000000000000000000000000000000600052603260045260246000fd5b9050602002016020810190610d859190612369565b868686818110610dbe577f4e487b7100000000000000000000000000000000000000000000000000000000600052603260045260246000fd5b90506020020135611db4565b8080610dd5906131ad565b915050610ce3565b5050505050565b610dec611d62565b73ffffffffffffffffffffffffffffffffffffffff16610e0a610e6c565b73ffffffffffffffffffffffffffffffffffffffff1614610e60576040517f08c379a0000000000000000000000000000000000000000000000000000000008152600401610e5790612e32565b60405180910390fd5b610e6a6000611e3d565b565b60008060009054906101000a900473ffffffffffffffffffffffffffffffffffffffff16905090565b6000600160003373ffffffffffffffffffffffffffffffffffffffff1673ffffffffffffffffffffffffffffffffffffffff168152602001908152602001600020600083815260200190815260200160002060009054906101000a900460ff169050919050565b610f04611d62565b73ffffffffffffffffffffffffffffffffffffffff16610f22610e6c565b73ffffffffffffffffffffffffffffffffffffffff1614610f78576040517f08c379a0000000000000000000000000000000000000000000000000000000008152600401610f6f90612e32565b60405180910390fd5b600073ffffffffffffffffffffffffffffffffffffffff168273ffffffffffffffffffffffffffffffffffffffff161415610fe8576040517f08c379a0000000000000000000000000000000000000000000000000000000008152600401610fdf90612d72565b60405180910390fd5b60008110158015610ffa575060048111155b611039576040517f08c379a000000000000000000000000000000000000000000000000000000000815260040161103090612dd2565b60405180910390fd5b600260008373ffffffffffffffffffffffffffffffffffffffff1673ffffffffffffffffffffffffffffffffffffffff168152602001908152602001600020600082815260200190815260200160002060009054906101000a900460ff166110d6576040517f08c379a00000000000000000000000000000000000000000000000000000000081526004016110cd90612f32565b60405180910390fd5b60018060008473ffffffffffffffffffffffffffffffffffffffff1673ffffffffffffffffffffffffffffffffffffffff168152602001908152602001600020600083815260200190815260200160002060006101000a81548160ff0219169083151502179055508173ffffffffffffffffffffffffffffffffffffffff167f7416ee372fa1f68c2b850f6ccdae5cd2a316318817ac9e44c1aae1650d9d639860405160405180910390a25050565b6000339050600160008273ffffffffffffffffffffffffffffffffffffffff1673ffffffffffffffffffffffffffffffffffffffff168152602001908152602001600020600083815260200190815260200160002060009054906101000a900460ff16611331576000600260008373ffffffffffffffffffffffffffffffffffffffff1673ffffffffffffffffffffffffffffffffffffffff168152602001908152602001600020600084815260200190815260200160002060006101000a81548160ff021916908315150217905550600360009054906101000a900473ffffffffffffffffffffffffffffffffffffffff1673ffffffffffffffffffffffffffffffffffffffff1663f242432a30838560016040518563ffffffff1660e01b81526004016112b79493929190612aaa565b600060405180830381600087803b1580156112d157600080fd5b505af11580156112e5573d6000803e3d6000fd5b505050508073ffffffffffffffffffffffffffffffffffffffff167fa86aa03be1bcce285793c5d8564269601dd14fa5fb0b61dd91699f2ae236ff3460405160405180910390a261136c565b6040517f08c379a000000000000000000000000000000000000000000000000000000000815260040161136390612e72565b60405180910390fd5b5050565b6000339050600073ffffffffffffffffffffffffffffffffffffffff168173ffffffffffffffffffffffffffffffffffffffff1614156113e5576040517f08c379a00000000000000000000000000000000000000000000000000000000081526004016113dc90612db2565b60405180910390fd5b600a600360009054906101000a900473ffffffffffffffffffffffffffffffffffffffff1673ffffffffffffffffffffffffffffffffffffffff1662fdd58e8360056040518363ffffffff1660e01b8152600401611444929190612b5a565b60206040518083038186803b15801561145c57600080fd5b505afa158015611470573d6000803e3d6000fd5b505050506040513d601f19601f82011682018060405250810190611494919061265b565b10156114d5576040517f08c379a00000000000000000000000000000000000000000000000000000000081526004016114cc90612d52565b60405180910390fd5b6115b3816005600a6040516024016114ef93929190612b83565b6040516020818303038152906040527ff5298aca000000000000000000000000000000000000000000000000000000007bffffffffffffffffffffffffffffffffffffffffffffffffffffffff19166020820180517bffffffffffffffffffffffffffffffffffffffffffffffffffffffff8381831617835250505050600360009054906101000a900473ffffffffffffffffffffffffffffffffffffffff1673ffffffffffffffffffffffffffffffffffffffff16611d6a90919063ffffffff16565b5061169281600660016040516024016115ce93929190612c1a565b6040516020818303038152906040527f156e29f6000000000000000000000000000000000000000000000000000000007bffffffffffffffffffffffffffffffffffffffffffffffffffffffff19166020820180517bffffffffffffffffffffffffffffffffffffffffffffffffffffffff8381831617835250505050600360009054906101000a900473ffffffffffffffffffffffffffffffffffffffff1673ffffffffffffffffffffffffffffffffffffffff16611d6a90919063ffffffff16565b5050565b600063bc197c8160e01b905095945050505050565b6116b3611d62565b73ffffffffffffffffffffffffffffffffffffffff166116d1610e6c565b73ffffffffffffffffffffffffffffffffffffffff1614611727576040517f08c379a000000000000000000000000000000000000000000000000000000000815260040161171e90612e32565b60405180910390fd5b600073ffffffffffffffffffffffffffffffffffffffff168373ffffffffffffffffffffffffffffffffffffffff161415611797576040517f08c379a000000000000000000000000000000000000000000000000000000000815260040161178e90612e52565b60405180910390fd5b600082101580156117a9575060048211155b1561186457600360009054906101000a900473ffffffffffffffffffffffffffffffffffffffff1673ffffffffffffffffffffffffffffffffffffffff1663f242432a600660009054906101000a900473ffffffffffffffffffffffffffffffffffffffff168585856040518563ffffffff1660e01b81526004016118319493929190612b02565b600060405180830381600087803b15801561184b57600080fd5b505af115801561185f573d6000803e3d6000fd5b505050505b600782101580156118765750600b8211155b156119595761195783838360405160240161189393929190612c88565b6040516020818303038152906040527f156e29f6000000000000000000000000000000000000000000000000000000007bffffffffffffffffffffffffffffffffffffffffffffffffffffffff19166020820180517bffffffffffffffffffffffffffffffffffffffffffffffffffffffff8381831617835250505050600360009054906101000a900473ffffffffffffffffffffffffffffffffffffffff1673ffffffffffffffffffffffffffffffffffffffff16611d6a90919063ffffffff16565b505b80828473ffffffffffffffffffffffffffffffffffffffff167fa763328e7ff0badd2b813a2234778c6ca385b403fccb6215aad3ee9f14f9e0e160405160405180910390a4611a7b836006836040516024016119b793929190612c51565b6040516020818303038152906040527ff5298aca000000000000000000000000000000000000000000000000000000007bffffffffffffffffffffffffffffffffffffffffffffffffffffffff19166020820180517bffffffffffffffffffffffffffffffffffffffffffffffffffffffff8381831617835250505050600360009054906101000a900473ffffffffffffffffffffffffffffffffffffffff1673ffffffffffffffffffffffffffffffffffffffff16611d6a90919063ffffffff16565b50505050565b60026020528160005260406000206020528060005260406000206000915091509054906101000a900460ff1681565b600063f23a6e6160e01b905095945050505050565b611acd611d62565b73ffffffffffffffffffffffffffffffffffffffff16611aeb610e6c565b73ffffffffffffffffffffffffffffffffffffffff1614611b41576040517f08c379a0000000000000000000000000000000000000000000000000000000008152600401611b3890612e32565b60405180910390fd5b600073ffffffffffffffffffffffffffffffffffffffff168173ffffffffffffffffffffffffffffffffffffffff161415611bb1576040517f08c379a0000000000000000000000000000000000000000000000000000000008152600401611ba890612d32565b60405180910390fd5b611bba81611e3d565b50565b60003390506001600360009054906101000a900473ffffffffffffffffffffffffffffffffffffffff1673ffffffffffffffffffffffffffffffffffffffff1662fdd58e8360066040518363ffffffff1660e01b8152600401611c21929190612bf1565b60206040518083038186803b158015611c3957600080fd5b505afa158015611c4d573d6000803e3d6000fd5b505050506040513d601f19601f82011682018060405250810190611c71919061265b565b1015611cb2576040517f08c379a0000000000000000000000000000000000000000000000000000000008152600401611ca990612e92565b60405180910390fd5b8073ffffffffffffffffffffffffffffffffffffffff167f8fa117d1a4307ca59c5138b71ef370127971669f167ca8f2f50fd56f8991685c60405160405180910390a250565b60007f01ffc9a7000000000000000000000000000000000000000000000000000000007bffffffffffffffffffffffffffffffffffffffffffffffffffffffff1916827bffffffffffffffffffffffffffffffffffffffffffffffffffffffff1916149050919050565b600033905090565b6060611dac83836040518060400160405280601e81526020017f416464726573733a206c6f772d6c6576656c2063616c6c206661696c65640000815250611f01565b905092915050565b611e37846323b872dd60e01b858585604051602401611dd593929190612a73565b604051602081830303815290604052907bffffffffffffffffffffffffffffffffffffffffffffffffffffffff19166020820180517bffffffffffffffffffffffffffffffffffffffffffffffffffffffff8381831617835250505050611f19565b50505050565b60008060009054906101000a900473ffffffffffffffffffffffffffffffffffffffff169050816000806101000a81548173ffffffffffffffffffffffffffffffffffffffff021916908373ffffffffffffffffffffffffffffffffffffffff1602179055508173ffffffffffffffffffffffffffffffffffffffff168173ffffffffffffffffffffffffffffffffffffffff167f8be0079c531659141344cd1fd0a4f28419497f9722a3daafe3b4186f6b6457e060405160405180910390a35050565b6060611f108484600085611fe0565b90509392505050565b6000611f7b826040518060400160405280602081526020017f5361666545524332303a206c6f772d6c6576656c2063616c6c206661696c65648152508573ffffffffffffffffffffffffffffffffffffffff16611f019092919063ffffffff16565b9050600081511115611fdb5780806020019051810190611f9b91906125e0565b611fda576040517f08c379a0000000000000000000000000000000000000000000000000000000008152600401611fd190612f12565b60405180910390fd5b5b505050565b606082471015612025576040517f08c379a000000000000000000000000000000000000000000000000000000000815260040161201c90612d92565b60405180910390fd5b61202e856120f4565b61206d576040517f08c379a000000000000000000000000000000000000000000000000000000000815260040161206490612ed2565b60405180910390fd5b6000808673ffffffffffffffffffffffffffffffffffffffff1685876040516120969190612a18565b60006040518083038185875af1925050503d80600081146120d3576040519150601f19603f3d011682016040523d82523d6000602084013e6120d8565b606091505b50915091506120e8828286612107565b92505050949350505050565b600080823b905060008111915050919050565b6060831561211757829050612167565b60008351111561212a5782518084602001fd5b816040517f08c379a000000000000000000000000000000000000000000000000000000000815260040161215e9190612d10565b60405180910390fd5b9392505050565b600061218161217c84612f77565b612f52565b905080838252602082019050828560208602820111156121a057600080fd5b60005b858110156121d057816121b6888261233f565b8452602084019350602083019250506001810190506121a3565b5050509392505050565b60006121ed6121e884612fa3565b612f52565b90508281526020810184848401111561220557600080fd5b61221084828561313a565b509392505050565b60008135905061222781613593565b92915050565b60008083601f84011261223f57600080fd5b8235905067ffffffffffffffff81111561225857600080fd5b60208301915083602082028301111561227057600080fd5b9250929050565b60008083601f84011261228957600080fd5b8235905067ffffffffffffffff8111156122a257600080fd5b6020830191508360208202830111156122ba57600080fd5b9250929050565b600082601f8301126122d257600080fd5b81356122e284826020860161216e565b91505092915050565b6000815190506122fa816135aa565b92915050565b60008135905061230f816135c1565b92915050565b600082601f83011261232657600080fd5b81356123368482602086016121da565b91505092915050565b60008135905061234e816135d8565b92915050565b600081519050612363816135d8565b92915050565b60006020828403121561237b57600080fd5b600061238984828501612218565b91505092915050565b600080600080600060a086880312156123aa57600080fd5b60006123b888828901612218565b95505060206123c988828901612218565b945050604086013567ffffffffffffffff8111156123e657600080fd5b6123f2888289016122c1565b935050606086013567ffffffffffffffff81111561240f57600080fd5b61241b888289016122c1565b925050608086013567ffffffffffffffff81111561243857600080fd5b61244488828901612315565b9150509295509295909350565b600080600080600060a0868803121561246957600080fd5b600061247788828901612218565b955050602061248888828901612218565b94505060406124998882890161233f565b93505060606124aa8882890161233f565b925050608086013567ffffffffffffffff8111156124c757600080fd5b6124d388828901612315565b9150509295509295909350565b600080604083850312156124f357600080fd5b600061250185828601612218565b92505060206125128582860161233f565b9150509250929050565b60008060006060848603121561253157600080fd5b600061253f86828701612218565b93505060206125508682870161233f565b92505060406125618682870161233f565b9150509250925092565b6000806000806040858703121561258157600080fd5b600085013567ffffffffffffffff81111561259b57600080fd5b6125a78782880161222d565b9450945050602085013567ffffffffffffffff8111156125c657600080fd5b6125d287828801612277565b925092505092959194509250565b6000602082840312156125f257600080fd5b6000612600848285016122eb565b91505092915050565b60006020828403121561261b57600080fd5b600061262984828501612300565b91505092915050565b60006020828403121561264457600080fd5b60006126528482850161233f565b91505092915050565b60006020828403121561266d57600080fd5b600061267b84828501612354565b91505092915050565b61268d81613017565b82525050565b61269c81613029565b82525050565b6126ab81613035565b82525050565b60006126bc82612fd4565b6126c68185612ffb565b93506126d6818560208601613149565b80840191505092915050565b6126eb81613098565b82525050565b6126fa816130bc565b82525050565b612709816130ce565b82525050565b612718816130e0565b82525050565b612727816130f2565b82525050565b61273681613104565b82525050565b61274581613116565b82525050565b61275481613128565b82525050565b600061276582612fdf565b61276f8185613006565b935061277f818560208601613149565b61278881613254565b840191505092915050565b60006127a0602683613006565b91506127ab82613265565b604082019050919050565b60006127c3601b83613006565b91506127ce826132b4565b602082019050919050565b60006127e6601083613006565b91506127f1826132dd565b602082019050919050565b6000612809602683613006565b915061281482613306565b604082019050919050565b600061282c601483613006565b915061283782613355565b602082019050919050565b600061284f601083613006565b915061285a8261337e565b602082019050919050565b6000612872600c83613006565b915061287d826133a7565b602082019050919050565b6000612895601083613006565b91506128a0826133d0565b602082019050919050565b60006128b8602083613006565b91506128c3826133f9565b602082019050919050565b60006128db601783613006565b91506128e682613422565b602082019050919050565b60006128fe601483613006565b91506129098261344b565b602082019050919050565b6000612921601783613006565b915061292c82613474565b602082019050919050565b6000612944601b83613006565b915061294f8261349d565b602082019050919050565b6000612967600083612fea565b9150612972826134c6565b600082019050919050565b600061298a601d83613006565b9150612995826134c9565b602082019050919050565b60006129ad601283613006565b91506129b8826134f2565b602082019050919050565b60006129d0602a83613006565b91506129db8261351b565b604082019050919050565b60006129f3601683613006565b91506129fe8261356a565b602082019050919050565b612a1281613081565b82525050565b6000612a2482846126b1565b915081905092915050565b6000602082019050612a446000830184612684565b92915050565b6000604082019050612a5f6000830185612684565b612a6c6020830184612684565b9392505050565b6000606082019050612a886000830186612684565b612a956020830185612684565b612aa26040830184612a09565b949350505050565b600060a082019050612abf6000830187612684565b612acc6020830186612684565b612ad96040830185612a09565b612ae66060830184612700565b8181036080830152612af78161295a565b905095945050505050565b600060a082019050612b176000830187612684565b612b246020830186612684565b612b316040830185612a09565b612b3e6060830184612a09565b8181036080830152612b4f8161295a565b905095945050505050565b6000604082019050612b6f6000830185612684565b612b7c602083018461271e565b9392505050565b6000606082019050612b986000830186612684565b612ba5602083018561272d565b612bb260408301846126f1565b949350505050565b6000606082019050612bcf6000830186612684565b612bdc602083018561272d565b612be96040830184612a09565b949350505050565b6000604082019050612c066000830185612684565b612c13602083018461273c565b9392505050565b6000606082019050612c2f6000830186612684565b612c3c602083018561274b565b612c49604083018461270f565b949350505050565b6000606082019050612c666000830186612684565b612c73602083018561274b565b612c806040830184612a09565b949350505050565b6000606082019050612c9d6000830186612684565b612caa6020830185612a09565b612cb76040830184612a09565b949350505050565b6000602082019050612cd46000830184612693565b92915050565b6000602082019050612cef60008301846126a2565b92915050565b6000602082019050612d0a60008301846126e2565b92915050565b60006020820190508181036000830152612d2a818461275a565b905092915050565b60006020820190508181036000830152612d4b81612793565b9050919050565b60006020820190508181036000830152612d6b816127b6565b9050919050565b60006020820190508181036000830152612d8b816127d9565b9050919050565b60006020820190508181036000830152612dab816127fc565b9050919050565b60006020820190508181036000830152612dcb8161281f565b9050919050565b60006020820190508181036000830152612deb81612842565b9050919050565b60006020820190508181036000830152612e0b81612865565b9050919050565b60006020820190508181036000830152612e2b81612888565b9050919050565b60006020820190508181036000830152612e4b816128ab565b9050919050565b60006020820190508181036000830152612e6b816128ce565b9050919050565b60006020820190508181036000830152612e8b816128f1565b9050919050565b60006020820190508181036000830152612eab81612914565b9050919050565b60006020820190508181036000830152612ecb81612937565b9050919050565b60006020820190508181036000830152612eeb8161297d565b9050919050565b60006020820190508181036000830152612f0b816129a0565b9050919050565b60006020820190508181036000830152612f2b816129c3565b9050919050565b60006020820190508181036000830152612f4b816129e6565b9050919050565b6000612f5c612f6d565b9050612f68828261317c565b919050565b6000604051905090565b600067ffffffffffffffff821115612f9257612f91613225565b5b602082029050602081019050919050565b600067ffffffffffffffff821115612fbe57612fbd613225565b5b612fc782613254565b9050602081019050919050565b600081519050919050565b600081519050919050565b600082825260208201905092915050565b600081905092915050565b600082825260208201905092915050565b600061302282613061565b9050919050565b60008115159050919050565b60007fffffffff0000000000000000000000000000000000000000000000000000000082169050919050565b600073ffffffffffffffffffffffffffffffffffffffff82169050919050565b6000819050919050565b600060ff82169050919050565b60006130a3826130aa565b9050919050565b60006130b582613061565b9050919050565b60006130c78261308b565b9050919050565b60006130d982613081565b9050919050565b60006130eb8261308b565b9050919050565b60006130fd82613081565b9050919050565b600061310f8261308b565b9050919050565b600061312182613081565b9050919050565b60006131338261308b565b9050919050565b82818337600083830152505050565b60005b8381101561316757808201518184015260208101905061314c565b83811115613176576000848401525b50505050565b61318582613254565b810181811067ffffffffffffffff821117156131a4576131a3613225565b5b80604052505050565b60006131b882613081565b91507fffffffffffffffffffffffffffffffffffffffffffffffffffffffffffffffff8214156131eb576131ea6131f6565b5b600182019050919050565b7f4e487b7100000000000000000000000000000000000000000000000000000000600052601160045260246000fd5b7f4e487b7100000000000000000000000000000000000000000000000000000000600052604160045260246000fd5b6000601f19601f8301169050919050565b7f4f776e61626c653a206e6577206f776e657220697320746865207a65726f206160008201527f6464726573730000000000000000000000000000000000000000000000000000602082015250565b7f77696e6e657220667261676d656e7473206e6f7420656e6f7567680000000000600082015250565b7f536574207a65726f206164647265737300000000000000000000000000000000600082015250565b7f416464726573733a20696e73756666696369656e742062616c616e636520666f60008201527f722063616c6c0000000000000000000000000000000000000000000000000000602082015250565b7f6d696e7420746f207a65726f2061646472657373000000000000000000000000600082015250565b7f556e6b6e6f776e20636172207479706500000000000000000000000000000000600082015250565b7f4e6f7420617070726f7665640000000000000000000000000000000000000000600082015250565b7f6c656e677468206e6f7420657175616c00000000000000000000000000000000600082015250565b7f4f776e61626c653a2063616c6c6572206973206e6f7420746865206f776e6572600082015250565b7f64656c6976657220746f207a65726f2061646472657373000000000000000000600082015250565b7f506c61796572206361722069732062726f6b656e000000000000000000000000600082015250565b7f506c6179657220686173206e6f20626c696e6420626f78000000000000000000600082015250565b7f5468697320736f7274206f662063617220697320696e2067616d650000000000600082015250565b50565b7f416464726573733a2063616c6c20746f206e6f6e2d636f6e7472616374000000600082015250565b7f436172206e6f7420627265616b20646f776e0000000000000000000000000000600082015250565b7f5361666545524332303a204552433230206f7065726174696f6e20646964206e60008201527f6f74207375636365656400000000000000000000000000000000000000000000602082015250565b7f506c6179657220636172206e6f7420696e2067616d6500000000000000000000600082015250565b61359c81613017565b81146135a757600080fd5b50565b6135b381613029565b81146135be57600080fd5b50565b6135ca81613035565b81146135d557600080fd5b50565b6135e181613081565b81146135ec57600080fd5b5056fea2646970667358221220fa2ae9cce2f189274a25a094581d71aaa49e60139b2c6460f9b9dee4791e530264736f6c63430008040033",
  "linkReferences": {},
  "deployedLinkReferences": {}
}