{
  "_format": "hh-sol-artifact-1",
  "contractName": "CarCarNft",
  "sourceName": "contracts/CarCarNft.sol",
  "abi": [
    {
      "inputs": [],
      "stateMutability": "nonpayable",
      "type": "constructor"
    },
    {
      "anonymous": false,
      "inputs": [
        {
          "indexed": true,
          "internalType": "address",
          "name": "account",
          "type": "address"
        },
        {
          "indexed": true,
          "internalType": "address",
          "name": "operator",
          "type": "address"
        },
        {
          "indexed": false,
          "internalType": "bool",
          "name": "approved",
          "type": "bool"
        }
      ],
      "name": "ApprovalForAll",
      "type": "event"
    },
    {
      "anonymous": false,
      "inputs": [
        {
          "indexed": true,
          "internalType": "address",
          "name": "previousOwner",
          "type": "address"
        },
        {
          "indexed": true,
          "internalType": "address",
          "name": "newOwner",
          "type": "address"
        }
      ],
      "name": "OwnershipTransferred",
      "type": "event"
    },
    {
      "anonymous": false,
      "inputs": [
        {
          "indexed": true,
          "internalType": "address",
          "name": "operator",
          "type": "address"
        },
        {
          "indexed": true,
          "internalType": "address",
          "name": "from",
          "type": "address"
        },
        {
          "indexed": true,
          "internalType": "address",
          "name": "to",
          "type": "address"
        },
        {
          "indexed": false,
          "internalType": "uint256[]",
          "name": "ids",
          "type": "uint256[]"
        },
        {
          "indexed": false,
          "internalType": "uint256[]",
          "name": "values",
          "type": "uint256[]"
        }
      ],
      "name": "TransferBatch",
      "type": "event"
    },
    {
      "anonymous": false,
      "inputs": [
        {
          "indexed": true,
          "internalType": "address",
          "name": "operator",
          "type": "address"
        },
        {
          "indexed": true,
          "internalType": "address",
          "name": "from",
          "type": "address"
        },
        {
          "indexed": true,
          "internalType": "address",
          "name": "to",
          "type": "address"
        },
        {
          "indexed": false,
          "internalType": "uint256",
          "name": "id",
          "type": "uint256"
        },
        {
          "indexed": false,
          "internalType": "uint256",
          "name": "value",
          "type": "uint256"
        }
      ],
      "name": "TransferSingle",
      "type": "event"
    },
    {
      "anonymous": false,
      "inputs": [
        {
          "indexed": false,
          "internalType": "string",
          "name": "value",
          "type": "string"
        },
        {
          "indexed": true,
          "internalType": "uint256",
          "name": "id",
          "type": "uint256"
        }
      ],
      "name": "URI",
      "type": "event"
    },
    {
      "inputs": [
        {
          "internalType": "address",
          "name": "account",
          "type": "address"
        },
        {
          "internalType": "uint256",
          "name": "id",
          "type": "uint256"
        }
      ],
      "name": "balanceOf",
      "outputs": [
        {
          "internalType": "uint256",
          "name": "",
          "type": "uint256"
        }
      ],
      "stateMutability": "view",
      "type": "function"
    },
    {
      "inputs": [
        {
          "internalType": "address[]",
          "name": "accounts",
          "type": "address[]"
        },
        {
          "internalType": "uint256[]",
          "name": "ids",
          "type": "uint256[]"
        }
      ],
      "name": "balanceOfBatch",
      "outputs": [
        {
          "internalType": "uint256[]",
          "name": "",
          "type": "uint256[]"
        }
      ],
      "stateMutability": "view",
      "type": "function"
    },
    {
      "inputs": [
        {
          "internalType": "address",
          "name": "to",
          "type": "address"
        },
        {
          "internalType": "uint256",
          "name": "tokenId",
          "type": "uint256"
        },
        {
          "internalType": "uint256",
          "name": "amount",
          "type": "uint256"
        }
      ],
      "name": "burn",
      "outputs": [],
      "stateMutability": "nonpayable",
      "type": "function"
    },
    {
      "inputs": [
        {
          "internalType": "address",
          "name": "account",
          "type": "address"
        },
        {
          "internalType": "address",
          "name": "operator",
          "type": "address"
        }
      ],
      "name": "isApprovedForAll",
      "outputs": [
        {
          "internalType": "bool",
          "name": "",
          "type": "bool"
        }
      ],
      "stateMutability": "view",
      "type": "function"
    },
    {
      "inputs": [
        {
          "internalType": "address",
          "name": "to",
          "type": "address"
        },
        {
          "internalType": "uint256",
          "name": "tokenId",
          "type": "uint256"
        },
        {
          "internalType": "uint256",
          "name": "amount",
          "type": "uint256"
        }
      ],
      "name": "mint",
      "outputs": [],
      "stateMutability": "nonpayable",
      "type": "function"
    },
    {
      "inputs": [],
      "name": "nClassCar",
      "outputs": [
        {
          "internalType": "uint256",
          "name": "",
          "type": "uint256"
        }
      ],
      "stateMutability": "view",
      "type": "function"
    },
    {
      "inputs": [],
      "name": "nClassUpgradeComp",
      "outputs": [
        {
          "internalType": "uint256",
          "name": "",
          "type": "uint256"
        }
      ],
      "stateMutability": "view",
      "type": "function"
    },
    {
      "inputs": [],
      "name": "owner",
      "outputs": [
        {
          "internalType": "address",
          "name": "",
          "type": "address"
        }
      ],
      "stateMutability": "view",
      "type": "function"
    },
    {
      "inputs": [],
      "name": "rClassCar",
      "outputs": [
        {
          "internalType": "uint256",
          "name": "",
          "type": "uint256"
        }
      ],
      "stateMutability": "view",
      "type": "function"
    },
    {
      "inputs": [],
      "name": "rClassUpgradeComp",
      "outputs": [
        {
          "internalType": "uint256",
          "name": "",
          "type": "uint256"
        }
      ],
      "stateMutability": "view",
      "type": "function"
    },
    {
      "inputs": [],
      "name": "renounceOwnership",
      "outputs": [],
      "stateMutability": "nonpayable",
      "type": "function"
    },
    {
      "inputs": [
        {
          "internalType": "address",
          "name": "from",
          "type": "address"
        },
        {
          "internalType": "address",
          "name": "to",
          "type": "address"
        },
        {
          "internalType": "uint256[]",
          "name": "ids",
          "type": "uint256[]"
        },
        {
          "internalType": "uint256[]",
          "name": "amounts",
          "type": "uint256[]"
        },
        {
          "internalType": "bytes",
          "name": "data",
          "type": "bytes"
        }
      ],
      "name": "safeBatchTransferFrom",
      "outputs": [],
      "stateMutability": "nonpayable",
      "type": "function"
    },
    {
      "inputs": [
        {
          "internalType": "address",
          "name": "from",
          "type": "address"
        },
        {
          "internalType": "address",
          "name": "to",
          "type": "address"
        },
        {
          "internalType": "uint256",
          "name": "id",
          "type": "uint256"
        },
        {
          "internalType": "uint256",
          "name": "amount",
          "type": "uint256"
        },
        {
          "internalType": "bytes",
          "name": "data",
          "type": "bytes"
        }
      ],
      "name": "safeTransferFrom",
      "outputs": [],
      "stateMutability": "nonpayable",
      "type": "function"
    },
    {
      "inputs": [
        {
          "internalType": "address",
          "name": "operator",
          "type": "address"
        },
        {
          "internalType": "bool",
          "name": "approved",
          "type": "bool"
        }
      ],
      "name": "setApprovalForAll",
      "outputs": [],
      "stateMutability": "nonpayable",
      "type": "function"
    },
    {
      "inputs": [
        {
          "internalType": "address",
          "name": "_minter",
          "type": "address"
        }
      ],
      "name": "setMinter",
      "outputs": [],
      "stateMutability": "nonpayable",
      "type": "function"
    },
    {
      "inputs": [
        {
          "internalType": "string",
          "name": "newuri",
          "type": "string"
        }
      ],
      "name": "setURI",
      "outputs": [],
      "stateMutability": "nonpayable",
      "type": "function"
    },
    {
      "inputs": [],
      "name": "srClassCar",
      "outputs": [
        {
          "internalType": "uint256",
          "name": "",
          "type": "uint256"
        }
      ],
      "stateMutability": "view",
      "type": "function"
    },
    {
      "inputs": [],
      "name": "srClassUpgradeComp",
      "outputs": [
        {
          "internalType": "uint256",
          "name": "",
          "type": "uint256"
        }
      ],
      "stateMutability": "view",
      "type": "function"
    },
    {
      "inputs": [],
      "name": "ssrClassCar",
      "outputs": [
        {
          "internalType": "uint256",
          "name": "",
          "type": "uint256"
        }
      ],
      "stateMutability": "view",
      "type": "function"
    },
    {
      "inputs": [],
      "name": "ssrClassUpgradeComp",
      "outputs": [
        {
          "internalType": "uint256",
          "name": "",
          "type": "uint256"
        }
      ],
      "stateMutability": "view",
      "type": "function"
    },
    {
      "inputs": [
        {
          "internalType": "bytes4",
          "name": "interfaceId",
          "type": "bytes4"
        }
      ],
      "name": "supportsInterface",
      "outputs": [
        {
          "internalType": "bool",
          "name": "",
          "type": "bool"
        }
      ],
      "stateMutability": "view",
      "type": "function"
    },
    {
      "inputs": [
        {
          "internalType": "uint256",
          "name": "_tokenId",
          "type": "uint256"
        }
      ],
      "name": "tokenIdExist",
      "outputs": [
        {
          "internalType": "bool",
          "name": "",
          "type": "bool"
        }
      ],
      "stateMutability": "pure",
      "type": "function"
    },
    {
      "inputs": [
        {
          "internalType": "address",
          "name": "newOwner",
          "type": "address"
        }
      ],
      "name": "transferOwnership",
      "outputs": [],
      "stateMutability": "nonpayable",
      "type": "function"
    },
    {
      "inputs": [
        {
          "internalType": "uint256",
          "name": "",
          "type": "uint256"
        }
      ],
      "name": "uri",
      "outputs": [
        {
          "internalType": "string",
          "name": "",
          "type": "string"
        }
      ],
      "stateMutability": "view",
      "type": "function"
    },
    {
      "inputs": [],
      "name": "velodrome",
      "outputs": [
        {
          "internalType": "uint256",
          "name": "",
          "type": "uint256"
        }
      ],
      "stateMutability": "view",
      "type": "function"
    },
    {
      "inputs": [],
      "name": "velodromeLand",
      "outputs": [
        {
          "internalType": "uint256",
          "name": "",
          "type": "uint256"
        }
      ],
      "stateMutability": "view",
      "type": "function"
    },
    {
      "inputs": [],
      "name": "winnerBox",
      "outputs": [
        {
          "internalType": "uint256",
          "name": "",
          "type": "uint256"
        }
      ],
      "stateMutability": "view",
      "type": "function"
    },
    {
      "inputs": [],
      "name": "winnerFragment",
      "outputs": [
        {
          "internalType": "uint256",
          "name": "",
          "type": "uint256"
        }
      ],
      "stateMutability": "view",
      "type": "function"
    }
  ],
  "bytecode": "0x60806040523480156200001157600080fd5b506040518060200160405280600081525062000033816200011a60201b60201c565b5062000054620000486200013660201b60201c565b6200013e60201b60201c565b6200007b33600062061a80604051806020016040528060008152506200020460201b60201c565b620000a233600062013880604051806020016040528060008152506200020460201b60201c565b620000c8336000614650604051806020016040528060008152506200020460201b60201c565b620000ee3360006107d0604051806020016040528060008152506200020460201b60201c565b620001143360046103e8604051806020016040528060008152506200020460201b60201c565b62000e02565b806002908051906020019062000132929190620006b7565b5050565b600033905090565b6000600360009054906101000a900473ffffffffffffffffffffffffffffffffffffffff16905081600360006101000a81548173ffffffffffffffffffffffffffffffffffffffff021916908373ffffffffffffffffffffffffffffffffffffffff1602179055508173ffffffffffffffffffffffffffffffffffffffff168173ffffffffffffffffffffffffffffffffffffffff167f8be0079c531659141344cd1fd0a4f28419497f9722a3daafe3b4186f6b6457e060405160405180910390a35050565b600073ffffffffffffffffffffffffffffffffffffffff168473ffffffffffffffffffffffffffffffffffffffff16141562000277576040517f08c379a00000000000000000000000000000000000000000000000000000000081526004016200026e906200098f565b60405180910390fd5b6000620002896200013660201b60201c565b9050620002c281600087620002a488620003c960201b60201c565b620002b588620003c960201b60201c565b876200049260201b60201c565b8260008086815260200190815260200160002060008773ffffffffffffffffffffffffffffffffffffffff1673ffffffffffffffffffffffffffffffffffffffff168152602001908152602001600020600082825462000323919062000a20565b925050819055508473ffffffffffffffffffffffffffffffffffffffff16600073ffffffffffffffffffffffffffffffffffffffff168273ffffffffffffffffffffffffffffffffffffffff167fc3d58168c5ae7397731d063d5bbf3d657854427343f4c083240f7aacaa2d0f628787604051620003a3929190620009b1565b60405180910390a4620003c2816000878787876200049a60201b60201c565b5050505050565b60606000600167ffffffffffffffff8111156200040f577f4e487b7100000000000000000000000000000000000000000000000000000000600052604160045260246000fd5b6040519080825280602002602001820160405280156200043e5781602001602082028036833780820191505090505b50905082816000815181106200047d577f4e487b7100000000000000000000000000000000000000000000000000000000600052603260045260246000fd5b60200260200101818152505080915050919050565b505050505050565b620004c68473ffffffffffffffffffffffffffffffffffffffff16620006a460201b620012a71760201c565b156200069c578373ffffffffffffffffffffffffffffffffffffffff1663f23a6e6187878686866040518663ffffffff1660e01b81526004016200050f959493929190620008c3565b602060405180830381600087803b1580156200052a57600080fd5b505af19250505080156200055e57506040513d601f19601f820116820180604052508101906200055b91906200077e565b60015b62000610576200056d62000c16565b806308c379a01415620005d157506200058562000d46565b80620005925750620005d3565b806040517f08c379a0000000000000000000000000000000000000000000000000000000008152600401620005c8919062000927565b60405180910390fd5b505b6040517f08c379a000000000000000000000000000000000000000000000000000000000815260040162000607906200094b565b60405180910390fd5b63f23a6e6160e01b7bffffffffffffffffffffffffffffffffffffffffffffffffffffffff1916817bffffffffffffffffffffffffffffffffffffffffffffffffffffffff1916146200069a576040517f08c379a000000000000000000000000000000000000000000000000000000000815260040162000691906200096d565b60405180910390fd5b505b505050505050565b600080823b905060008111915050919050565b828054620006c59062000b1d565b90600052602060002090601f016020900481019282620006e9576000855562000735565b82601f106200070457805160ff191683800117855562000735565b8280016001018555821562000735579182015b828111156200073457825182559160200191906001019062000717565b5b50905062000744919062000748565b5090565b5b808211156200076357600081600090555060010162000749565b5090565b600081519050620007788162000de8565b92915050565b6000602082840312156200079157600080fd5b6000620007a18482850162000767565b91505092915050565b620007b58162000a7d565b82525050565b6000620007c882620009e8565b620007d48185620009fe565b9350620007e681856020860162000ae7565b620007f18162000c3b565b840191505092915050565b60006200080982620009f3565b62000815818562000a0f565b93506200082781856020860162000ae7565b620008328162000c3b565b840191505092915050565b60006200084c60348362000a0f565b9150620008598262000c59565b604082019050919050565b60006200087360288362000a0f565b9150620008808262000ca8565b604082019050919050565b60006200089a60218362000a0f565b9150620008a78262000cf7565b604082019050919050565b620008bd8162000add565b82525050565b600060a082019050620008da6000830188620007aa565b620008e96020830187620007aa565b620008f86040830186620008b2565b620009076060830185620008b2565b81810360808301526200091b8184620007bb565b90509695505050505050565b60006020820190508181036000830152620009438184620007fc565b905092915050565b6000602082019050818103600083015262000966816200083d565b9050919050565b60006020820190508181036000830152620009888162000864565b9050919050565b60006020820190508181036000830152620009aa816200088b565b9050919050565b6000604082019050620009c86000830185620008b2565b620009d76020830184620008b2565b9392505050565b6000604051905090565b600081519050919050565b600081519050919050565b600082825260208201905092915050565b600082825260208201905092915050565b600062000a2d8262000add565b915062000a3a8362000add565b9250827fffffffffffffffffffffffffffffffffffffffffffffffffffffffffffffffff0382111562000a725762000a7162000b89565b5b828201905092915050565b600062000a8a8262000abd565b9050919050565b60007fffffffff0000000000000000000000000000000000000000000000000000000082169050919050565b600073ffffffffffffffffffffffffffffffffffffffff82169050919050565b6000819050919050565b60005b8381101562000b0757808201518184015260208101905062000aea565b8381111562000b17576000848401525b50505050565b6000600282049050600182168062000b3657607f821691505b6020821081141562000b4d5762000b4c62000bb8565b5b50919050565b62000b5e8262000c3b565b810181811067ffffffffffffffff8211171562000b805762000b7f62000be7565b5b80604052505050565b7f4e487b7100000000000000000000000000000000000000000000000000000000600052601160045260246000fd5b7f4e487b7100000000000000000000000000000000000000000000000000000000600052602260045260246000fd5b7f4e487b7100000000000000000000000000000000000000000000000000000000600052604160045260246000fd5b600060033d111562000c385760046000803e62000c3560005162000c4c565b90505b90565b6000601f19601f8301169050919050565b60008160e01c9050919050565b7f455243313135353a207472616e7366657220746f206e6f6e204552433131353560008201527f526563656976657220696d706c656d656e746572000000000000000000000000602082015250565b7f455243313135353a204552433131353552656365697665722072656a6563746560008201527f6420746f6b656e73000000000000000000000000000000000000000000000000602082015250565b7f455243313135353a206d696e7420746f20746865207a65726f2061646472657360008201527f7300000000000000000000000000000000000000000000000000000000000000602082015250565b600060443d101562000d585762000de5565b62000d62620009de565b60043d036004823e80513d602482011167ffffffffffffffff8211171562000d8c57505062000de5565b808201805167ffffffffffffffff81111562000dac575050505062000de5565b80602083010160043d03850181111562000dcb57505050505062000de5565b62000ddc8260200185018662000b53565b82955050505050505b90565b62000df38162000a91565b811462000dff57600080fd5b50565b613ad78062000e126000396000f3fe608060405234801561001057600080fd5b50600436106101c35760003560e01c80634e1273f4116100f9578063cf63edea11610097578063f242432a11610071578063f242432a146104e8578063f2fde38b14610504578063f5298aca14610520578063fca3b5aa1461053c576101c3565b8063cf63edea1461046a578063cf94c0051461049a578063e985e9c5146104b8576101c3565b80638da5cb5b116100d35780638da5cb5b146103f4578063a22cb46514610412578063b43d6c971461042e578063bb4bea251461044c576101c3565b80634e1273f41461039c5780635a69518e146103cc578063715018a6146103ea576101c3565b80631af368fb1161016657806330e94eea1161014057806330e94eea146103245780633fbc6495146103425780634360b6281461036057806348803d231461037e576101c3565b80631af368fb146102cc578063299d340e146102ea5780632eb2c2d614610308576101c3565b806305bd2973116101a257806305bd2973146102445780630e89341c14610262578063156e29f61461029257806316b1e753146102ae576101c3565b8062fdd58e146101c857806301ffc9a7146101f857806302fe530514610228575b600080fd5b6101e260048036038101906101dd9190612734565b610558565b6040516101ef9190613077565b60405180910390f35b610212600480360381019061020d919061282b565b610621565b60405161021f9190612dda565b60405180910390f35b610242600480360381019061023d919061287d565b610703565b005b61024c61078b565b6040516102599190613077565b60405180910390f35b61027c600480360381019061027791906128be565b610790565b6040516102899190612df5565b60405180910390f35b6102ac60048036038101906102a79190612770565b610824565b005b6102b661098c565b6040516102c39190613077565b60405180910390f35b6102d4610991565b6040516102e19190613077565b60405180910390f35b6102f2610996565b6040516102ff9190613077565b60405180910390f35b610322600480360381019061031d91906125aa565b61099b565b005b61032c610a3c565b6040516103399190613077565b60405180910390f35b61034a610a41565b6040516103579190613077565b60405180910390f35b610368610a46565b6040516103759190613077565b60405180910390f35b610386610a4b565b6040516103939190613077565b60405180910390f35b6103b660048036038101906103b191906127bf565b610a50565b6040516103c39190612d81565b60405180910390f35b6103d4610c01565b6040516103e19190613077565b60405180910390f35b6103f2610c06565b005b6103fc610c8e565b6040516104099190612ca4565b60405180910390f35b61042c600480360381019061042791906126f8565b610cb8565b005b610436610e39565b6040516104439190613077565b60405180910390f35b610454610e3e565b6040516104619190613077565b60405180910390f35b610484600480360381019061047f91906128be565b610e43565b6040516104919190612dda565b60405180910390f35b6104a2610e5d565b6040516104af9190613077565b60405180910390f35b6104d260048036038101906104cd919061256e565b610e62565b6040516104df9190612dda565b60405180910390f35b61050260048036038101906104fd9190612669565b610ef6565b005b61051e60048036038101906105199190612545565b610f97565b005b61053a60048036038101906105359190612770565b61108f565b005b61055660048036038101906105519190612545565b6111e7565b005b60008073ffffffffffffffffffffffffffffffffffffffff168373ffffffffffffffffffffffffffffffffffffffff1614156105c9576040517f08c379a00000000000000000000000000000000000000000000000000000000081526004016105c090612e57565b60405180910390fd5b60008083815260200190815260200160002060008473ffffffffffffffffffffffffffffffffffffffff1673ffffffffffffffffffffffffffffffffffffffff16815260200190815260200160002054905092915050565b60007fd9b67a26000000000000000000000000000000000000000000000000000000007bffffffffffffffffffffffffffffffffffffffffffffffffffffffff1916827bffffffffffffffffffffffffffffffffffffffffffffffffffffffff191614806106ec57507f0e89341c000000000000000000000000000000000000000000000000000000007bffffffffffffffffffffffffffffffffffffffffffffffffffffffff1916827bffffffffffffffffffffffffffffffffffffffffffffffffffffffff1916145b806106fc57506106fb826112ba565b5b9050919050565b61070b611324565b73ffffffffffffffffffffffffffffffffffffffff16610729610c8e565b73ffffffffffffffffffffffffffffffffffffffff161461077f576040517f08c379a000000000000000000000000000000000000000000000000000000000815260040161077690612fd7565b60405180910390fd5b6107888161132c565b50565b600181565b60606002805461079f90613317565b80601f01602080910402602001604051908101604052809291908181526020018280546107cb90613317565b80156108185780601f106107ed57610100808354040283529160200191610818565b820191906000526020600020905b8154815290600101906020018083116107fb57829003601f168201915b50505050509050919050565b600073ffffffffffffffffffffffffffffffffffffffff168373ffffffffffffffffffffffffffffffffffffffff161415610894576040517f08c379a000000000000000000000000000000000000000000000000000000000815260040161088b90612ef7565b60405180910390fd5b61089d82610e43565b6108dc576040517f08c379a00000000000000000000000000000000000000000000000000000000081526004016108d390612ed7565b60405180910390fd5b3373ffffffffffffffffffffffffffffffffffffffff16600460009054906101000a900473ffffffffffffffffffffffffffffffffffffffff1673ffffffffffffffffffffffffffffffffffffffff161461096c576040517f08c379a000000000000000000000000000000000000000000000000000000000815260040161096390612f17565b60405180910390fd5b61098783838360405180602001604052806000815250611346565b505050565b600b81565b600281565b600581565b6109a3611324565b73ffffffffffffffffffffffffffffffffffffffff168573ffffffffffffffffffffffffffffffffffffffff1614806109e957506109e8856109e3611324565b610e62565b5b610a28576040517f08c379a0000000000000000000000000000000000000000000000000000000008152600401610a1f90612f77565b60405180910390fd5b610a3585858585856114dc565b5050505050565b600981565b600381565b600781565b600881565b60608151835114610a96576040517f08c379a0000000000000000000000000000000000000000000000000000000008152600401610a8d90613017565b60405180910390fd5b6000835167ffffffffffffffff811115610ad9577f4e487b7100000000000000000000000000000000000000000000000000000000600052604160045260246000fd5b604051908082528060200260200182016040528015610b075781602001602082028036833780820191505090505b50905060005b8451811015610bf657610ba0858281518110610b52577f4e487b7100000000000000000000000000000000000000000000000000000000600052603260045260246000fd5b6020026020010151858381518110610b93577f4e487b7100000000000000000000000000000000000000000000000000000000600052603260045260246000fd5b6020026020010151610558565b828281518110610bd9577f4e487b7100000000000000000000000000000000000000000000000000000000600052603260045260246000fd5b60200260200101818152505080610bef9061337a565b9050610b0d565b508091505092915050565b600481565b610c0e611324565b73ffffffffffffffffffffffffffffffffffffffff16610c2c610c8e565b73ffffffffffffffffffffffffffffffffffffffff1614610c82576040517f08c379a0000000000000000000000000000000000000000000000000000000008152600401610c7990612fd7565b60405180910390fd5b610c8c600061183c565b565b6000600360009054906101000a900473ffffffffffffffffffffffffffffffffffffffff16905090565b8173ffffffffffffffffffffffffffffffffffffffff16610cd7611324565b73ffffffffffffffffffffffffffffffffffffffff161415610d2e576040517f08c379a0000000000000000000000000000000000000000000000000000000008152600401610d2590612ff7565b60405180910390fd5b8060016000610d3b611324565b73ffffffffffffffffffffffffffffffffffffffff1673ffffffffffffffffffffffffffffffffffffffff16815260200190815260200160002060008473ffffffffffffffffffffffffffffffffffffffff1673ffffffffffffffffffffffffffffffffffffffff16815260200190815260200160002060006101000a81548160ff0219169083151502179055508173ffffffffffffffffffffffffffffffffffffffff16610de8611324565b73ffffffffffffffffffffffffffffffffffffffff167f17307eab39ab6107e8899845ad3d59bd9653f200f220920489ca2b5937696c3183604051610e2d9190612dda565b60405180910390a35050565b600081565b600a81565b6000808210158015610e565750600b8211155b9050919050565b600681565b6000600160008473ffffffffffffffffffffffffffffffffffffffff1673ffffffffffffffffffffffffffffffffffffffff16815260200190815260200160002060008373ffffffffffffffffffffffffffffffffffffffff1673ffffffffffffffffffffffffffffffffffffffff16815260200190815260200160002060009054906101000a900460ff16905092915050565b610efe611324565b73ffffffffffffffffffffffffffffffffffffffff168573ffffffffffffffffffffffffffffffffffffffff161480610f445750610f4385610f3e611324565b610e62565b5b610f83576040517f08c379a0000000000000000000000000000000000000000000000000000000008152600401610f7a90612eb7565b60405180910390fd5b610f908585858585611902565b5050505050565b610f9f611324565b73ffffffffffffffffffffffffffffffffffffffff16610fbd610c8e565b73ffffffffffffffffffffffffffffffffffffffff1614611013576040517f08c379a000000000000000000000000000000000000000000000000000000000815260040161100a90612fd7565b60405180910390fd5b600073ffffffffffffffffffffffffffffffffffffffff168173ffffffffffffffffffffffffffffffffffffffff161415611083576040517f08c379a000000000000000000000000000000000000000000000000000000000815260040161107a90612e77565b60405180910390fd5b61108c8161183c565b50565b600073ffffffffffffffffffffffffffffffffffffffff168373ffffffffffffffffffffffffffffffffffffffff1614156110ff576040517f08c379a00000000000000000000000000000000000000000000000000000000081526004016110f690612f37565b60405180910390fd5b61110882610e43565b611147576040517f08c379a000000000000000000000000000000000000000000000000000000000815260040161113e90612ed7565b60405180910390fd5b3373ffffffffffffffffffffffffffffffffffffffff16600460009054906101000a900473ffffffffffffffffffffffffffffffffffffffff1673ffffffffffffffffffffffffffffffffffffffff16146111d7576040517f08c379a00000000000000000000000000000000000000000000000000000000081526004016111ce90612f17565b60405180910390fd5b6111e2838383611b84565b505050565b6111ef611324565b73ffffffffffffffffffffffffffffffffffffffff1661120d610c8e565b73ffffffffffffffffffffffffffffffffffffffff1614611263576040517f08c379a000000000000000000000000000000000000000000000000000000000815260040161125a90612fd7565b60405180910390fd5b80600460006101000a81548173ffffffffffffffffffffffffffffffffffffffff021916908373ffffffffffffffffffffffffffffffffffffffff16021790555050565b600080823b905060008111915050919050565b60007f01ffc9a7000000000000000000000000000000000000000000000000000000007bffffffffffffffffffffffffffffffffffffffffffffffffffffffff1916827bffffffffffffffffffffffffffffffffffffffffffffffffffffffff1916149050919050565b600033905090565b806002908051906020019061134292919061223d565b5050565b600073ffffffffffffffffffffffffffffffffffffffff168473ffffffffffffffffffffffffffffffffffffffff1614156113b6576040517f08c379a00000000000000000000000000000000000000000000000000000000081526004016113ad90613057565b60405180910390fd5b60006113c0611324565b90506113e1816000876113d288611da1565b6113db88611da1565b87611e67565b8260008086815260200190815260200160002060008773ffffffffffffffffffffffffffffffffffffffff1673ffffffffffffffffffffffffffffffffffffffff1681526020019081526020016000206000828254611440919061320b565b925050819055508473ffffffffffffffffffffffffffffffffffffffff16600073ffffffffffffffffffffffffffffffffffffffff168273ffffffffffffffffffffffffffffffffffffffff167fc3d58168c5ae7397731d063d5bbf3d657854427343f4c083240f7aacaa2d0f6287876040516114be929190613092565b60405180910390a46114d581600087878787611e6f565b5050505050565b8151835114611520576040517f08c379a000000000000000000000000000000000000000000000000000000000815260040161151790613037565b60405180910390fd5b600073ffffffffffffffffffffffffffffffffffffffff168473ffffffffffffffffffffffffffffffffffffffff161415611590576040517f08c379a000000000000000000000000000000000000000000000000000000000815260040161158790612f57565b60405180910390fd5b600061159a611324565b90506115aa818787878787611e67565b60005b84518110156117a75760008582815181106115f1577f4e487b7100000000000000000000000000000000000000000000000000000000600052603260045260246000fd5b602002602001015190506000858381518110611636577f4e487b7100000000000000000000000000000000000000000000000000000000600052603260045260246000fd5b60200260200101519050600080600084815260200190815260200160002060008b73ffffffffffffffffffffffffffffffffffffffff1673ffffffffffffffffffffffffffffffffffffffff168152602001908152602001600020549050818110156116d7576040517f08c379a00000000000000000000000000000000000000000000000000000000081526004016116ce90612fb7565b60405180910390fd5b81810360008085815260200190815260200160002060008c73ffffffffffffffffffffffffffffffffffffffff1673ffffffffffffffffffffffffffffffffffffffff168152602001908152602001600020819055508160008085815260200190815260200160002060008b73ffffffffffffffffffffffffffffffffffffffff1673ffffffffffffffffffffffffffffffffffffffff168152602001908152602001600020600082825461178c919061320b565b92505081905550505050806117a09061337a565b90506115ad565b508473ffffffffffffffffffffffffffffffffffffffff168673ffffffffffffffffffffffffffffffffffffffff168273ffffffffffffffffffffffffffffffffffffffff167f4a39dc06d4c0dbc64b70af90fd698a233a518aa5d07e595d983b8c0526c8f7fb878760405161181e929190612da3565b60405180910390a4611834818787878787612056565b505050505050565b6000600360009054906101000a900473ffffffffffffffffffffffffffffffffffffffff16905081600360006101000a81548173ffffffffffffffffffffffffffffffffffffffff021916908373ffffffffffffffffffffffffffffffffffffffff1602179055508173ffffffffffffffffffffffffffffffffffffffff168173ffffffffffffffffffffffffffffffffffffffff167f8be0079c531659141344cd1fd0a4f28419497f9722a3daafe3b4186f6b6457e060405160405180910390a35050565b600073ffffffffffffffffffffffffffffffffffffffff168473ffffffffffffffffffffffffffffffffffffffff161415611972576040517f08c379a000000000000000000000000000000000000000000000000000000000815260040161196990612f57565b60405180910390fd5b600061197c611324565b905061199c81878761198d88611da1565b61199688611da1565b87611e67565b600080600086815260200190815260200160002060008873ffffffffffffffffffffffffffffffffffffffff1673ffffffffffffffffffffffffffffffffffffffff16815260200190815260200160002054905083811015611a33576040517f08c379a0000000000000000000000000000000000000000000000000000000008152600401611a2a90612fb7565b60405180910390fd5b83810360008087815260200190815260200160002060008973ffffffffffffffffffffffffffffffffffffffff1673ffffffffffffffffffffffffffffffffffffffff168152602001908152602001600020819055508360008087815260200190815260200160002060008873ffffffffffffffffffffffffffffffffffffffff1673ffffffffffffffffffffffffffffffffffffffff1681526020019081526020016000206000828254611ae8919061320b565b925050819055508573ffffffffffffffffffffffffffffffffffffffff168773ffffffffffffffffffffffffffffffffffffffff168373ffffffffffffffffffffffffffffffffffffffff167fc3d58168c5ae7397731d063d5bbf3d657854427343f4c083240f7aacaa2d0f628888604051611b65929190613092565b60405180910390a4611b7b828888888888611e6f565b50505050505050565b600073ffffffffffffffffffffffffffffffffffffffff168373ffffffffffffffffffffffffffffffffffffffff161415611bf4576040517f08c379a0000000000000000000000000000000000000000000000000000000008152600401611beb90612f97565b60405180910390fd5b6000611bfe611324565b9050611c2e81856000611c1087611da1565b611c1987611da1565b60405180602001604052806000815250611e67565b600080600085815260200190815260200160002060008673ffffffffffffffffffffffffffffffffffffffff1673ffffffffffffffffffffffffffffffffffffffff16815260200190815260200160002054905082811015611cc5576040517f08c379a0000000000000000000000000000000000000000000000000000000008152600401611cbc90612e97565b60405180910390fd5b82810360008086815260200190815260200160002060008773ffffffffffffffffffffffffffffffffffffffff1673ffffffffffffffffffffffffffffffffffffffff16815260200190815260200160002081905550600073ffffffffffffffffffffffffffffffffffffffff168573ffffffffffffffffffffffffffffffffffffffff168373ffffffffffffffffffffffffffffffffffffffff167fc3d58168c5ae7397731d063d5bbf3d657854427343f4c083240f7aacaa2d0f628787604051611d92929190613092565b60405180910390a45050505050565b60606000600167ffffffffffffffff811115611de6577f4e487b7100000000000000000000000000000000000000000000000000000000600052604160045260246000fd5b604051908082528060200260200182016040528015611e145781602001602082028036833780820191505090505b5090508281600081518110611e52577f4e487b7100000000000000000000000000000000000000000000000000000000600052603260045260246000fd5b60200260200101818152505080915050919050565b505050505050565b611e8e8473ffffffffffffffffffffffffffffffffffffffff166112a7565b1561204e578373ffffffffffffffffffffffffffffffffffffffff1663f23a6e6187878686866040518663ffffffff1660e01b8152600401611ed4959493929190612d27565b602060405180830381600087803b158015611eee57600080fd5b505af1925050508015611f1f57506040513d601f19601f82011682018060405250810190611f1c9190612854565b60015b611fc557611f2b613450565b806308c379a01415611f885750611f406139af565b80611f4b5750611f8a565b806040517f08c379a0000000000000000000000000000000000000000000000000000000008152600401611f7f9190612df5565b60405180910390fd5b505b6040517f08c379a0000000000000000000000000000000000000000000000000000000008152600401611fbc90612e17565b60405180910390fd5b63f23a6e6160e01b7bffffffffffffffffffffffffffffffffffffffffffffffffffffffff1916817bffffffffffffffffffffffffffffffffffffffffffffffffffffffff19161461204c576040517f08c379a000000000000000000000000000000000000000000000000000000000815260040161204390612e37565b60405180910390fd5b505b505050505050565b6120758473ffffffffffffffffffffffffffffffffffffffff166112a7565b15612235578373ffffffffffffffffffffffffffffffffffffffff1663bc197c8187878686866040518663ffffffff1660e01b81526004016120bb959493929190612cbf565b602060405180830381600087803b1580156120d557600080fd5b505af192505050801561210657506040513d601f19601f820116820180604052508101906121039190612854565b60015b6121ac57612112613450565b806308c379a0141561216f57506121276139af565b806121325750612171565b806040517f08c379a00000000000000000000000000000000000000000000000000000000081526004016121669190612df5565b60405180910390fd5b505b6040517f08c379a00000000000000000000000000000000000000000000000000000000081526004016121a390612e17565b60405180910390fd5b63bc197c8160e01b7bffffffffffffffffffffffffffffffffffffffffffffffffffffffff1916817bffffffffffffffffffffffffffffffffffffffffffffffffffffffff191614612233576040517f08c379a000000000000000000000000000000000000000000000000000000000815260040161222a90612e37565b60405180910390fd5b505b505050505050565b82805461224990613317565b90600052602060002090601f01602090048101928261226b57600085556122b2565b82601f1061228457805160ff19168380011785556122b2565b828001600101855582156122b2579182015b828111156122b1578251825591602001919060010190612296565b5b5090506122bf91906122c3565b5090565b5b808211156122dc5760008160009055506001016122c4565b5090565b60006122f36122ee846130e0565b6130bb565b9050808382526020820190508285602086028201111561231257600080fd5b60005b8581101561234257816123288882612434565b845260208401935060208301925050600181019050612315565b5050509392505050565b600061235f61235a8461310c565b6130bb565b9050808382526020820190508285602086028201111561237e57600080fd5b60005b858110156123ae57816123948882612530565b845260208401935060208301925050600181019050612381565b5050509392505050565b60006123cb6123c684613138565b6130bb565b9050828152602081018484840111156123e357600080fd5b6123ee8482856132d5565b509392505050565b600061240961240484613169565b6130bb565b90508281526020810184848401111561242157600080fd5b61242c8482856132d5565b509392505050565b60008135905061244381613a45565b92915050565b600082601f83011261245a57600080fd5b813561246a8482602086016122e0565b91505092915050565b600082601f83011261248457600080fd5b813561249484826020860161234c565b91505092915050565b6000813590506124ac81613a5c565b92915050565b6000813590506124c181613a73565b92915050565b6000815190506124d681613a73565b92915050565b600082601f8301126124ed57600080fd5b81356124fd8482602086016123b8565b91505092915050565b600082601f83011261251757600080fd5b81356125278482602086016123f6565b91505092915050565b60008135905061253f81613a8a565b92915050565b60006020828403121561255757600080fd5b600061256584828501612434565b91505092915050565b6000806040838503121561258157600080fd5b600061258f85828601612434565b92505060206125a085828601612434565b9150509250929050565b600080600080600060a086880312156125c257600080fd5b60006125d088828901612434565b95505060206125e188828901612434565b945050604086013567ffffffffffffffff8111156125fe57600080fd5b61260a88828901612473565b935050606086013567ffffffffffffffff81111561262757600080fd5b61263388828901612473565b925050608086013567ffffffffffffffff81111561265057600080fd5b61265c888289016124dc565b9150509295509295909350565b600080600080600060a0868803121561268157600080fd5b600061268f88828901612434565b95505060206126a088828901612434565b94505060406126b188828901612530565b93505060606126c288828901612530565b925050608086013567ffffffffffffffff8111156126df57600080fd5b6126eb888289016124dc565b9150509295509295909350565b6000806040838503121561270b57600080fd5b600061271985828601612434565b925050602061272a8582860161249d565b9150509250929050565b6000806040838503121561274757600080fd5b600061275585828601612434565b925050602061276685828601612530565b9150509250929050565b60008060006060848603121561278557600080fd5b600061279386828701612434565b93505060206127a486828701612530565b92505060406127b586828701612530565b9150509250925092565b600080604083850312156127d257600080fd5b600083013567ffffffffffffffff8111156127ec57600080fd5b6127f885828601612449565b925050602083013567ffffffffffffffff81111561281557600080fd5b61282185828601612473565b9150509250929050565b60006020828403121561283d57600080fd5b600061284b848285016124b2565b91505092915050565b60006020828403121561286657600080fd5b6000612874848285016124c7565b91505092915050565b60006020828403121561288f57600080fd5b600082013567ffffffffffffffff8111156128a957600080fd5b6128b584828501612506565b91505092915050565b6000602082840312156128d057600080fd5b60006128de84828501612530565b91505092915050565b60006128f38383612c86565b60208301905092915050565b61290881613261565b82525050565b6000612919826131aa565b61292381856131d8565b935061292e8361319a565b8060005b8381101561295f57815161294688826128e7565b9750612951836131cb565b925050600181019050612932565b5085935050505092915050565b61297581613273565b82525050565b6000612986826131b5565b61299081856131e9565b93506129a08185602086016132e4565b6129a981613472565b840191505092915050565b60006129bf826131c0565b6129c981856131fa565b93506129d98185602086016132e4565b6129e281613472565b840191505092915050565b60006129fa6034836131fa565b9150612a0582613490565b604082019050919050565b6000612a1d6028836131fa565b9150612a28826134df565b604082019050919050565b6000612a40602b836131fa565b9150612a4b8261352e565b604082019050919050565b6000612a636026836131fa565b9150612a6e8261357d565b604082019050919050565b6000612a866024836131fa565b9150612a91826135cc565b604082019050919050565b6000612aa96029836131fa565b9150612ab48261361b565b604082019050919050565b6000612acc6011836131fa565b9150612ad78261366a565b602082019050919050565b6000612aef6014836131fa565b9150612afa82613693565b602082019050919050565b6000612b126013836131fa565b9150612b1d826136bc565b602082019050919050565b6000612b356011836131fa565b9150612b40826136e5565b602082019050919050565b6000612b586025836131fa565b9150612b638261370e565b604082019050919050565b6000612b7b6032836131fa565b9150612b868261375d565b604082019050919050565b6000612b9e6023836131fa565b9150612ba9826137ac565b604082019050919050565b6000612bc1602a836131fa565b9150612bcc826137fb565b604082019050919050565b6000612be46020836131fa565b9150612bef8261384a565b602082019050919050565b6000612c076029836131fa565b9150612c1282613873565b604082019050919050565b6000612c2a6029836131fa565b9150612c35826138c2565b604082019050919050565b6000612c4d6028836131fa565b9150612c5882613911565b604082019050919050565b6000612c706021836131fa565b9150612c7b82613960565b604082019050919050565b612c8f816132cb565b82525050565b612c9e816132cb565b82525050565b6000602082019050612cb960008301846128ff565b92915050565b600060a082019050612cd460008301886128ff565b612ce160208301876128ff565b8181036040830152612cf3818661290e565b90508181036060830152612d07818561290e565b90508181036080830152612d1b818461297b565b90509695505050505050565b600060a082019050612d3c60008301886128ff565b612d4960208301876128ff565b612d566040830186612c95565b612d636060830185612c95565b8181036080830152612d75818461297b565b90509695505050505050565b60006020820190508181036000830152612d9b818461290e565b905092915050565b60006040820190508181036000830152612dbd818561290e565b90508181036020830152612dd1818461290e565b90509392505050565b6000602082019050612def600083018461296c565b92915050565b60006020820190508181036000830152612e0f81846129b4565b905092915050565b60006020820190508181036000830152612e30816129ed565b9050919050565b60006020820190508181036000830152612e5081612a10565b9050919050565b60006020820190508181036000830152612e7081612a33565b9050919050565b60006020820190508181036000830152612e9081612a56565b9050919050565b60006020820190508181036000830152612eb081612a79565b9050919050565b60006020820190508181036000830152612ed081612a9c565b9050919050565b60006020820190508181036000830152612ef081612abf565b9050919050565b60006020820190508181036000830152612f1081612ae2565b9050919050565b60006020820190508181036000830152612f3081612b05565b9050919050565b60006020820190508181036000830152612f5081612b28565b9050919050565b60006020820190508181036000830152612f7081612b4b565b9050919050565b60006020820190508181036000830152612f9081612b6e565b9050919050565b60006020820190508181036000830152612fb081612b91565b9050919050565b60006020820190508181036000830152612fd081612bb4565b9050919050565b60006020820190508181036000830152612ff081612bd7565b9050919050565b6000602082019050818103600083015261301081612bfa565b9050919050565b6000602082019050818103600083015261303081612c1d565b9050919050565b6000602082019050818103600083015261305081612c40565b9050919050565b6000602082019050818103600083015261307081612c63565b9050919050565b600060208201905061308c6000830184612c95565b92915050565b60006040820190506130a76000830185612c95565b6130b46020830184612c95565b9392505050565b60006130c56130d6565b90506130d18282613349565b919050565b6000604051905090565b600067ffffffffffffffff8211156130fb576130fa613421565b5b602082029050602081019050919050565b600067ffffffffffffffff82111561312757613126613421565b5b602082029050602081019050919050565b600067ffffffffffffffff82111561315357613152613421565b5b61315c82613472565b9050602081019050919050565b600067ffffffffffffffff82111561318457613183613421565b5b61318d82613472565b9050602081019050919050565b6000819050602082019050919050565b600081519050919050565b600081519050919050565b600081519050919050565b6000602082019050919050565b600082825260208201905092915050565b600082825260208201905092915050565b600082825260208201905092915050565b6000613216826132cb565b9150613221836132cb565b9250827fffffffffffffffffffffffffffffffffffffffffffffffffffffffffffffffff03821115613256576132556133c3565b5b828201905092915050565b600061326c826132ab565b9050919050565b60008115159050919050565b60007fffffffff0000000000000000000000000000000000000000000000000000000082169050919050565b600073ffffffffffffffffffffffffffffffffffffffff82169050919050565b6000819050919050565b82818337600083830152505050565b60005b838110156133025780820151818401526020810190506132e7565b83811115613311576000848401525b50505050565b6000600282049050600182168061332f57607f821691505b60208210811415613343576133426133f2565b5b50919050565b61335282613472565b810181811067ffffffffffffffff8211171561337157613370613421565b5b80604052505050565b6000613385826132cb565b91507fffffffffffffffffffffffffffffffffffffffffffffffffffffffffffffffff8214156133b8576133b76133c3565b5b600182019050919050565b7f4e487b7100000000000000000000000000000000000000000000000000000000600052601160045260246000fd5b7f4e487b7100000000000000000000000000000000000000000000000000000000600052602260045260246000fd5b7f4e487b7100000000000000000000000000000000000000000000000000000000600052604160045260246000fd5b600060033d111561346f5760046000803e61346c600051613483565b90505b90565b6000601f19601f8301169050919050565b60008160e01c9050919050565b7f455243313135353a207472616e7366657220746f206e6f6e204552433131353560008201527f526563656976657220696d706c656d656e746572000000000000000000000000602082015250565b7f455243313135353a204552433131353552656365697665722072656a6563746560008201527f6420746f6b656e73000000000000000000000000000000000000000000000000602082015250565b7f455243313135353a2062616c616e636520717565727920666f7220746865207a60008201527f65726f2061646472657373000000000000000000000000000000000000000000602082015250565b7f4f776e61626c653a206e6577206f776e657220697320746865207a65726f206160008201527f6464726573730000000000000000000000000000000000000000000000000000602082015250565b7f455243313135353a206275726e20616d6f756e7420657863656564732062616c60008201527f616e636500000000000000000000000000000000000000000000000000000000602082015250565b7f455243313135353a2063616c6c6572206973206e6f74206f776e6572206e6f7260008201527f20617070726f7665640000000000000000000000000000000000000000000000602082015250565b7f746f6b656e4964206e6f74206578697374000000000000000000000000000000600082015250565b7f6d696e7420746f207a65726f2061646472657373000000000000000000000000600082015250565b7f556e617574686f72697a65642063616c6c657200000000000000000000000000600082015250565b7f6275726e207a65726f2061646472657373000000000000000000000000000000600082015250565b7f455243313135353a207472616e7366657220746f20746865207a65726f20616460008201527f6472657373000000000000000000000000000000000000000000000000000000602082015250565b7f455243313135353a207472616e736665722063616c6c6572206973206e6f742060008201527f6f776e6572206e6f7220617070726f7665640000000000000000000000000000602082015250565b7f455243313135353a206275726e2066726f6d20746865207a65726f206164647260008201527f6573730000000000000000000000000000000000000000000000000000000000602082015250565b7f455243313135353a20696e73756666696369656e742062616c616e636520666f60008201527f72207472616e7366657200000000000000000000000000000000000000000000602082015250565b7f4f776e61626c653a2063616c6c6572206973206e6f7420746865206f776e6572600082015250565b7f455243313135353a2073657474696e6720617070726f76616c2073746174757360008201527f20666f722073656c660000000000000000000000000000000000000000000000602082015250565b7f455243313135353a206163636f756e747320616e6420696473206c656e67746860008201527f206d69736d617463680000000000000000000000000000000000000000000000602082015250565b7f455243313135353a2069647320616e6420616d6f756e7473206c656e6774682060008201527f6d69736d61746368000000000000000000000000000000000000000000000000602082015250565b7f455243313135353a206d696e7420746f20746865207a65726f2061646472657360008201527f7300000000000000000000000000000000000000000000000000000000000000602082015250565b600060443d10156139bf57613a42565b6139c76130d6565b60043d036004823e80513d602482011167ffffffffffffffff821117156139ef575050613a42565b808201805167ffffffffffffffff811115613a0d5750505050613a42565b80602083010160043d038501811115613a2a575050505050613a42565b613a3982602001850186613349565b82955050505050505b90565b613a4e81613261565b8114613a5957600080fd5b50565b613a6581613273565b8114613a7057600080fd5b50565b613a7c8161327f565b8114613a8757600080fd5b50565b613a93816132cb565b8114613a9e57600080fd5b5056fea26469706673582212202f14a64a876ff41175ef2f93d8562958a13676f8418d60be4b05c1603c54183b64736f6c63430008040033",
  "linkReferences": {},
  "deployedLinkReferences": {}
}